{"abi":[{"type":"function","name":"ray","inputs":[],"outputs":[{"name":"","type":"uint256","internalType":"uint256"}],"stateMutability":"pure"},{"type":"function","name":"wad","inputs":[],"outputs":[{"name":"","type":"uint256","internalType":"uint256"}],"stateMutability":"pure"}],"bytecode":{"object":"0x607c610038600b82828239805160001a607314602b57634e487b7160e01b600052600060045260246000fd5b30600052607381538281f3fe7300000000000000000000000000000000000000003014608060405260043610603d5760003560e01c8063416a8b201460425780637df38c5b146062575b600080fd5b6b033b2e3c9fd0803ce80000005b60405190815260200160405180910390f35b670de0b6b3a7640000605056fea164736f6c6343000814000a","linkReferences":{}},"methodIdentifiers":{"ray()":"416a8b20","wad()":"7df38c5b"},"id":39}