{"abi":[{"type":"constructor","inputs":[],"stateMutability":"nonpayable"},{"type":"function","name":"OWNER_FEE_PERCENTAGE","inputs":[],"outputs":[{"name":"","type":"uint256","internalType":"uint256"}],"stateMutability":"view"},{"type":"function","name":"PERCENTAGE_DIVISOR","inputs":[],"outputs":[{"name":"","type":"uint256","internalType":"uint256"}],"stateMutability":"view"},{"type":"function","name":"approve","inputs":[{"name":"to","type":"address","internalType":"address"},{"name":"tokenId","type":"uint256","internalType":"uint256"}],"outputs":[],"stateMutability":"nonpayable"},{"type":"function","name":"balanceOf","inputs":[{"name":"owner","type":"address","internalType":"address"}],"outputs":[{"name":"","type":"uint256","internalType":"uint256"}],"stateMutability":"view"},{"type":"function","name":"createToken","inputs":[{"name":"metadata","type":"string","internalType":"string"},{"name":"name","type":"string","internalType":"string"},{"name":"initValue","type":"uint256","internalType":"uint256"}],"outputs":[],"stateMutability":"nonpayable"},{"type":"function","name":"getAllTokens","inputs":[],"outputs":[{"name":"","type":"tuple[]","internalType":"struct SoniaNFT.Token[]","components":[{"name":"tokenId","type":"uint256","internalType":"uint256"},{"name":"name","type":"string","internalType":"string"},{"name":"initValue","type":"uint256","internalType":"uint256"},{"name":"metadata","type":"string","internalType":"string"},{"name":"available","type":"bool","internalType":"bool"},{"name":"dateCheckIn","type":"uint256","internalType":"uint256"}]}],"stateMutability":"view"},{"type":"function","name":"getApproved","inputs":[{"name":"tokenId","type":"uint256","internalType":"uint256"}],"outputs":[{"name":"","type":"address","internalType":"address"}],"stateMutability":"view"},{"type":"function","name":"getOwner","inputs":[],"outputs":[{"name":"","type":"address","internalType":"address"}],"stateMutability":"view"},{"type":"function","name":"getOwnerTokens","inputs":[{"name":"_walletAddress","type":"address","internalType":"address"}],"outputs":[{"name":"","type":"tuple[]","internalType":"struct SoniaNFT.Token[]","components":[{"name":"tokenId","type":"uint256","internalType":"uint256"},{"name":"name","type":"string","internalType":"string"},{"name":"initValue","type":"uint256","internalType":"uint256"},{"name":"metadata","type":"string","internalType":"string"},{"name":"available","type":"bool","internalType":"bool"},{"name":"dateCheckIn","type":"uint256","internalType":"uint256"}]}],"stateMutability":"view"},{"type":"function","name":"isApprovedForAll","inputs":[{"name":"owner","type":"address","internalType":"address"},{"name":"operator","type":"address","internalType":"address"}],"outputs":[{"name":"","type":"bool","internalType":"bool"}],"stateMutability":"view"},{"type":"function","name":"name","inputs":[],"outputs":[{"name":"","type":"string","internalType":"string"}],"stateMutability":"view"},{"type":"function","name":"owner","inputs":[],"outputs":[{"name":"","type":"address","internalType":"address"}],"stateMutability":"view"},{"type":"function","name":"ownerOf","inputs":[{"name":"tokenId","type":"uint256","internalType":"uint256"}],"outputs":[{"name":"","type":"address","internalType":"address"}],"stateMutability":"view"},{"type":"function","name":"purchaseToken","inputs":[{"name":"tokenId","type":"uint256","internalType":"uint256"},{"name":"previousValue","type":"uint256","internalType":"uint256"}],"outputs":[],"stateMutability":"payable"},{"type":"function","name":"safeTransferFrom","inputs":[{"name":"from","type":"address","internalType":"address"},{"name":"to","type":"address","internalType":"address"},{"name":"tokenId","type":"uint256","internalType":"uint256"}],"outputs":[],"stateMutability":"nonpayable"},{"type":"function","name":"safeTransferFrom","inputs":[{"name":"from","type":"address","internalType":"address"},{"name":"to","type":"address","internalType":"address"},{"name":"tokenId","type":"uint256","internalType":"uint256"},{"name":"data","type":"bytes","internalType":"bytes"}],"outputs":[],"stateMutability":"nonpayable"},{"type":"function","name":"setApprovalForAll","inputs":[{"name":"operator","type":"address","internalType":"address"},{"name":"approved","type":"bool","internalType":"bool"}],"outputs":[],"stateMutability":"nonpayable"},{"type":"function","name":"supportsInterface","inputs":[{"name":"interfaceId","type":"bytes4","internalType":"bytes4"}],"outputs":[{"name":"","type":"bool","internalType":"bool"}],"stateMutability":"view"},{"type":"function","name":"symbol","inputs":[],"outputs":[{"name":"","type":"string","internalType":"string"}],"stateMutability":"view"},{"type":"function","name":"tokenURI","inputs":[{"name":"tokenId","type":"uint256","internalType":"uint256"}],"outputs":[{"name":"","type":"string","internalType":"string"}],"stateMutability":"view"},{"type":"function","name":"tokensCreated","inputs":[{"name":"","type":"uint256","internalType":"uint256"}],"outputs":[{"name":"tokenId","type":"uint256","internalType":"uint256"},{"name":"name","type":"string","internalType":"string"},{"name":"initValue","type":"uint256","internalType":"uint256"},{"name":"metadata","type":"string","internalType":"string"},{"name":"available","type":"bool","internalType":"bool"},{"name":"dateCheckIn","type":"uint256","internalType":"uint256"}],"stateMutability":"view"},{"type":"function","name":"totalSupply","inputs":[],"outputs":[{"name":"","type":"uint256","internalType":"uint256"}],"stateMutability":"view"},{"type":"function","name":"transferFrom","inputs":[{"name":"from","type":"address","internalType":"address"},{"name":"to","type":"address","internalType":"address"},{"name":"tokenId","type":"uint256","internalType":"uint256"}],"outputs":[],"stateMutability":"nonpayable"},{"type":"event","name":"Approval","inputs":[{"name":"owner","type":"address","indexed":true,"internalType":"address"},{"name":"approved","type":"address","indexed":true,"internalType":"address"},{"name":"tokenId","type":"uint256","indexed":true,"internalType":"uint256"}],"anonymous":false},{"type":"event","name":"ApprovalForAll","inputs":[{"name":"owner","type":"address","indexed":true,"internalType":"address"},{"name":"operator","type":"address","indexed":true,"internalType":"address"},{"name":"approved","type":"bool","indexed":false,"internalType":"bool"}],"anonymous":false},{"type":"event","name":"BatchMetadataUpdate","inputs":[{"name":"_fromTokenId","type":"uint256","indexed":false,"internalType":"uint256"},{"name":"_toTokenId","type":"uint256","indexed":false,"internalType":"uint256"}],"anonymous":false},{"type":"event","name":"MetadataUpdate","inputs":[{"name":"_tokenId","type":"uint256","indexed":false,"internalType":"uint256"}],"anonymous":false},{"type":"event","name":"TokenPurchased","inputs":[{"name":"buyer","type":"address","indexed":true,"internalType":"address"},{"name":"tokenId","type":"uint256","indexed":true,"internalType":"uint256"},{"name":"amount","type":"uint256","indexed":false,"internalType":"uint256"}],"anonymous":false},{"type":"event","name":"Transfer","inputs":[{"name":"from","type":"address","indexed":true,"internalType":"address"},{"name":"to","type":"address","indexed":true,"internalType":"address"},{"name":"tokenId","type":"uint256","indexed":true,"internalType":"uint256"}],"anonymous":false},{"type":"event","name":"callCreateToken","inputs":[{"name":"tokenId","type":"uint256","indexed":true,"internalType":"uint256"}],"anonymous":false},{"type":"error","name":"ERC721IncorrectOwner","inputs":[{"name":"sender","type":"address","internalType":"address"},{"name":"tokenId","type":"uint256","internalType":"uint256"},{"name":"owner","type":"address","internalType":"address"}]},{"type":"error","name":"ERC721InsufficientApproval","inputs":[{"name":"operator","type":"address","internalType":"address"},{"name":"tokenId","type":"uint256","internalType":"uint256"}]},{"type":"error","name":"ERC721InvalidApprover","inputs":[{"name":"approver","type":"address","internalType":"address"}]},{"type":"error","name":"ERC721InvalidOperator","inputs":[{"name":"operator","type":"address","internalType":"address"}]},{"type":"error","name":"ERC721InvalidOwner","inputs":[{"name":"owner","type":"address","internalType":"address"}]},{"type":"error","name":"ERC721InvalidReceiver","inputs":[{"name":"receiver","type":"address","internalType":"address"}]},{"type":"error","name":"ERC721InvalidSender","inputs":[{"name":"sender","type":"address","internalType":"address"}]},{"type":"error","name":"ERC721NonexistentToken","inputs":[{"name":"tokenId","type":"uint256","internalType":"uint256"}]}],"bytecode":{"object":"0x60806040523480156200001157600080fd5b506040518060400160405280600b81526020016a105550d51253d3951154d560aa1b81525060405180604001604052806004815260200163105550d560e21b815250816000908162000064919062000133565b50600162000073828262000133565b5050600980546001600160a01b0319163317905550620001ff565b634e487b7160e01b600052604160045260246000fd5b600181811c90821680620000b957607f821691505b602082108103620000da57634e487b7160e01b600052602260045260246000fd5b50919050565b601f8211156200012e57600081815260208120601f850160051c81016020861015620001095750805b601f850160051c820191505b818110156200012a5782815560010162000115565b5050505b505050565b81516001600160401b038111156200014f576200014f6200008e565b6200016781620001608454620000a4565b84620000e0565b602080601f8311600181146200019f5760008415620001865750858301515b600019600386901b1c1916600185901b1785556200012a565b600085815260208120601f198616915b82811015620001d057888601518255948401946001909101908401620001af565b5085821015620001ef5787850151600019600388901b60f8161c191681555b5050505050600190811b01905550565b6120ea806200020f6000396000f3fe6080604052600436106101205760003560e01c80636352211e116100a65780636352211e146102b657806370a08231146102d6578063893d20e8146102f65780638da5cb5b1461031457806395d89b4114610334578063a22cb46514610349578063ae1911fc14610369578063b88d4fde1461037e578063c87b56dd1461039e578063caf29765146103be578063d63d4af0146103d3578063e985e9c5146103f357600080fd5b806301ffc9a71461012557806306fdde031461015a578063081812fc1461017c578063095ea7b3146101a957806318160ddd146101cb57806323b872dd146101ef5780632a5c792a1461020f578063301c5b901461023157806341abf5711461024457806342842e0e146102765780635b06053014610296575b600080fd5b34801561013157600080fd5b50610145610140366004611972565b610413565b60405190151581526020015b60405180910390f35b34801561016657600080fd5b5061016f61043e565b60405161015191906119df565b34801561018857600080fd5b5061019c6101973660046119f2565b6104d0565b6040516101519190611a0b565b3480156101b557600080fd5b506101c96101c4366004611a36565b6104e5565b005b3480156101d757600080fd5b506101e160075481565b604051908152602001610151565b3480156101fb57600080fd5b506101c961020a366004611a60565b6104f4565b34801561021b57600080fd5b50610224610574565b6040516101519190611a9c565b6101c961023f366004611b4e565b6107a4565b34801561025057600080fd5b5061026461025f3660046119f2565b610a05565b60405161015196959493929190611b70565b34801561028257600080fd5b506101c9610291366004611a60565b610b4e565b3480156102a257600080fd5b506101c96102b1366004611c62565b610b6e565b3480156102c257600080fd5b5061019c6102d13660046119f2565b610c84565b3480156102e257600080fd5b506101e16102f1366004611cce565b610c8f565b34801561030257600080fd5b506009546001600160a01b031661019c565b34801561032057600080fd5b5060095461019c906001600160a01b031681565b34801561034057600080fd5b5061016f610cd7565b34801561035557600080fd5b506101c9610364366004611ce9565b610ce6565b34801561037557600080fd5b506101e1600581565b34801561038a57600080fd5b506101c9610399366004611d25565b610cf1565b3480156103aa57600080fd5b5061016f6103b93660046119f2565b610d08565b3480156103ca57600080fd5b506101e1606481565b3480156103df57600080fd5b506102246103ee366004611cce565b610e19565b3480156103ff57600080fd5b5061014561040e366004611da0565b61109c565b60006001600160e01b03198216632483248360e11b14806104385750610438826110ca565b92915050565b60606000805461044d90611dd3565b80601f016020809104026020016040519081016040528092919081815260200182805461047990611dd3565b80156104c65780601f1061049b576101008083540402835291602001916104c6565b820191906000526020600020905b8154815290600101906020018083116104a957829003601f168201915b5050505050905090565b60006104db8261111a565b5061043882611152565b6104f082823361116d565b5050565b6001600160a01b038216610527576000604051633250574960e11b815260040161051e9190611a0b565b60405180910390fd5b600061053483833361117a565b9050836001600160a01b0316816001600160a01b03161461056e578382826040516364283d7b60e01b815260040161051e93929190611e07565b50505050565b606060006007546001600160401b0381111561059257610592611bb7565b6040519080825280602002602001820160405280156105cb57816020015b6105b8611921565b8152602001906001900390816105b05790505b506007549091501561079f5760005b60016007546105e99190611e40565b8161ffff161161079d57600860008261ffff1681526020019081526020016000206040518060c00160405290816000820154815260200160018201805461062f90611dd3565b80601f016020809104026020016040519081016040528092919081815260200182805461065b90611dd3565b80156106a85780601f1061067d576101008083540402835291602001916106a8565b820191906000526020600020905b81548152906001019060200180831161068b57829003601f168201915b50505050508152602001600282015481526020016003820180546106cb90611dd3565b80601f01602080910402602001604051908101604052809291908181526020018280546106f790611dd3565b80156107445780601f1061071957610100808354040283529160200191610744565b820191906000526020600020905b81548152906001019060200180831161072757829003601f168201915b5050509183525050600482015460ff16151560208201526005909101546040909101528251839061ffff841690811061077f5761077f611e53565b6020026020010181905250808061079590611e69565b9150506105da565b505b919050565b336107e45760405162461bcd60e51b815260206004820152601060248201526f15d85b1b195d081b9bdd081d985b1a5960821b604482015260640161051e565b3332146108335760405162461bcd60e51b815260206004820152601c60248201527f4f6e6c792065787465726e616c2077616c6c657420616c6c6f77656400000000604482015260640161051e565b60008281526008602052604090206004015460ff1661088a5760405162461bcd60e51b8152602060048201526013602482015272546f6b656e206e6f7420617661696c61626c6560681b604482015260640161051e565b803411156108f35760405162461bcd60e51b815260206004820152603060248201527f412076616c7565206d7573742062652067726561746572207468616e2074686560448201526f10383932bb34b7bab9903b30b63ab29760811b606482015260840161051e565b6000828152600860205260409020600201543411156109495760405162461bcd60e51b8152602060048201526012602482015271496e73756666696369656e742066756e647360701b604482015260640161051e565b600954610960906001600160a01b0316338461126e565b6000828152600860205260408120426005918201556064906109829034611e8a565b61098c9190611ea1565b6009546040519192506001600160a01b03169082156108fc029083906000818181858888f193505050501580156109c7573d6000803e3d6000fd5b50604051348152839033907f3ceffd410054fdaed44f598ff5c1fb450658778e2241892da4aa646979dee617906020015b60405180910390a3505050565b60086020526000908152604090208054600182018054919291610a2790611dd3565b80601f0160208091040260200160405190810160405280929190818152602001828054610a5390611dd3565b8015610aa05780601f10610a7557610100808354040283529160200191610aa0565b820191906000526020600020905b815481529060010190602001808311610a8357829003601f168201915b505050505090806002015490806003018054610abb90611dd3565b80601f0160208091040260200160405190810160405280929190818152602001828054610ae790611dd3565b8015610b345780601f10610b0957610100808354040283529160200191610b34565b820191906000526020600020905b815481529060010190602001808311610b1757829003601f168201915b505050506004830154600590930154919260ff1691905086565b610b6983838360405180602001604052806000815250610cf1565b505050565b600754604051600090610b85908690602001611ec3565b60408051601f1981840301815260c083018252848352602083810188815284840188905260608501839052600160808601819052600060a0870181905288815260089093529390912084518155905191945091820190610be59082611f7c565b506040820151600282015560608201516003820190610c049082611f7c565b50608082015160048201805460ff191691151591909117905560a090910151600590910155610c33338361130a565b610c3d828261136f565b60078054906000610c4d8361203b565b909155505060405182907fc5ae46c0a99c5e8dab5e6d897bc2b469f869f2a9f9b1843c41537901f1d8a5e390600090a25050505050565b60006104388261111a565b60006001600160a01b038216610cbb5760006040516322718ad960e21b815260040161051e9190611a0b565b506001600160a01b031660009081526003602052604090205490565b60606001805461044d90611dd3565b6104f03383836113bf565b610cfc8484846104f4565b61056e8484848461144d565b6060610d138261111a565b5060008281526006602052604081208054610d2d90611dd3565b80601f0160208091040260200160405190810160405280929190818152602001828054610d5990611dd3565b8015610da65780601f10610d7b57610100808354040283529160200191610da6565b820191906000526020600020905b815481529060010190602001808311610d8957829003601f168201915b505050505090506000610dc460408051602081019091526000815290565b90508051600003610dd6575092915050565b815115610e08578082604051602001610df0929190612054565b60405160208183030381529060405292505050919050565b610e1184611564565b949350505050565b60606000610e2683610c8f565b90506000816001600160401b03811115610e4257610e42611bb7565b604051908082528060200260200182016040528015610e7b57816020015b610e68611921565b815260200190600190039081610e605790505b5090508115611095576000805b6001600754610e979190611e40565b8161ffff16116110925761ffff8116600090815260086020526040812054610ebe90610c84565b9050866001600160a01b0316816001600160a01b03160361107f57600860008361ffff1681526020019081526020016000206040518060c001604052908160008201548152602001600182018054610f1590611dd3565b80601f0160208091040260200160405190810160405280929190818152602001828054610f4190611dd3565b8015610f8e5780601f10610f6357610100808354040283529160200191610f8e565b820191906000526020600020905b815481529060010190602001808311610f7157829003601f168201915b5050505050815260200160028201548152602001600382018054610fb190611dd3565b80601f0160208091040260200160405190810160405280929190818152602001828054610fdd90611dd3565b801561102a5780601f10610fff5761010080835404028352916020019161102a565b820191906000526020600020905b81548152906001019060200180831161100d57829003601f168201915b5050509183525050600482015460ff16151560208201526005909101546040909101528451859061ffff861690811061106557611065611e53565b6020026020010181905250828061107b90611e69565b9350505b508061108a81611e69565b915050610e88565b50505b9392505050565b6001600160a01b03918216600090815260056020908152604080832093909416825291909152205460ff1690565b60006001600160e01b031982166380ac58cd60e01b14806110fb57506001600160e01b03198216635b5e139f60e01b145b8061043857506301ffc9a760e01b6001600160e01b0319831614610438565b600080611126836115d8565b90506001600160a01b03811661043857604051637e27328960e01b81526004810184905260240161051e565b6000908152600460205260409020546001600160a01b031690565b610b6983838360016115f3565b600080611186846115d8565b90506001600160a01b038316156111a2576111a28184866116f0565b6001600160a01b038116156111e0576111bf6000856000806115f3565b6001600160a01b038116600090815260036020526040902080546000190190555b6001600160a01b0385161561120f576001600160a01b0385166000908152600360205260409020805460010190555b60008481526002602052604080822080546001600160a01b0319166001600160a01b0389811691821790925591518793918516917fddf252ad1be2c89b69c2b068fc378daa952ba7f163c4a11628f55a4df523b3ef91a4949350505050565b6001600160a01b038216611298576000604051633250574960e11b815260040161051e9190611a0b565b60006112a68383600061117a565b90506001600160a01b0381166112d257604051637e27328960e01b81526004810183905260240161051e565b836001600160a01b0316816001600160a01b03161461056e578382826040516364283d7b60e01b815260040161051e93929190611e07565b6001600160a01b038216611334576000604051633250574960e11b815260040161051e9190611a0b565b60006113428383600061117a565b90506001600160a01b03811615610b695760006040516339e3563760e11b815260040161051e9190611a0b565b60008281526006602052604090206113878282611f7c565b506040518281527ff8e1a15aba9398e019f0b49df1a4fde98ee17ae345cb5f6b5e2c27f5033e8ce79060200160405180910390a15050565b6001600160a01b0382166113e85781604051630b61174360e31b815260040161051e9190611a0b565b6001600160a01b03838116600081815260056020908152604080832094871680845294825291829020805460ff191686151590811790915591519182527f17307eab39ab6107e8899845ad3d59bd9653f200f220920489ca2b5937696c3191016109f8565b6001600160a01b0383163b1561056e57604051630a85bd0160e11b81526001600160a01b0384169063150b7a029061148f903390889087908790600401612083565b6020604051808303816000875af19250505080156114ca575060408051601f3d908101601f191682019092526114c7918101906120c0565b60015b61152a573d8080156114f8576040519150601f19603f3d011682016040523d82523d6000602084013e6114fd565b606091505b5080516000036115225783604051633250574960e11b815260040161051e9190611a0b565b805181602001fd5b6001600160e01b03198116630a85bd0160e11b1461155d5783604051633250574960e11b815260040161051e9190611a0b565b5050505050565b606061156f8261111a565b50600061158760408051602081019091526000815290565b905060008151116115a75760405180602001604052806000815250611095565b806115b184611754565b6040516020016115c2929190612054565b6040516020818303038152906040529392505050565b6000908152600260205260409020546001600160a01b031690565b808061160757506001600160a01b03821615155b156116c05760006116178461111a565b90506001600160a01b038316158015906116435750826001600160a01b0316816001600160a01b031614155b80156116565750611654818461109c565b155b15611676578260405163a9fbf51f60e01b815260040161051e9190611a0b565b81156116be5783856001600160a01b0316826001600160a01b03167f8c5be1e5ebec7d5bd14f71427d1e84f3dd0314c0f7b2291e5b200ac8c7c3b92560405160405180910390a45b505b5050600090815260046020526040902080546001600160a01b0319166001600160a01b0392909216919091179055565b6116fb8383836117e6565b610b69576001600160a01b03831661172957604051637e27328960e01b81526004810182905260240161051e565b60405163177e802f60e01b81526001600160a01b03831660048201526024810182905260440161051e565b606060006117618361184b565b60010190506000816001600160401b0381111561178057611780611bb7565b6040519080825280601f01601f1916602001820160405280156117aa576020820181803683370190505b5090508181016020015b600019016f181899199a1a9b1b9c1cb0b131b232b360811b600a86061a8153600a85049450846117b457509392505050565b60006001600160a01b03831615801590610e115750826001600160a01b0316846001600160a01b031614806118205750611820848461109c565b80610e115750826001600160a01b031661183983611152565b6001600160a01b031614949350505050565b60008072184f03e93ff9f4daa797ed6e38ed64bf6a1f0160401b831061188a5772184f03e93ff9f4daa797ed6e38ed64bf6a1f0160401b830492506040015b6904ee2d6d415b85acef8160201b83106118b4576904ee2d6d415b85acef8160201b830492506020015b662386f26fc1000083106118d257662386f26fc10000830492506010015b6305f5e10083106118ea576305f5e100830492506008015b61271083106118fe57612710830492506004015b60648310611910576064830492506002015b600a83106104385760010192915050565b6040518060c0016040528060008152602001606081526020016000815260200160608152602001600015158152602001600081525090565b6001600160e01b03198116811461196f57600080fd5b50565b60006020828403121561198457600080fd5b813561109581611959565b60005b838110156119aa578181015183820152602001611992565b50506000910152565b600081518084526119cb81602086016020860161198f565b601f01601f19169290920160200192915050565b60208152600061109560208301846119b3565b600060208284031215611a0457600080fd5b5035919050565b6001600160a01b0391909116815260200190565b80356001600160a01b038116811461079f57600080fd5b60008060408385031215611a4957600080fd5b611a5283611a1f565b946020939093013593505050565b600080600060608486031215611a7557600080fd5b611a7e84611a1f565b9250611a8c60208501611a1f565b9150604084013590509250925092565b60006020808301818452808551808352604092508286019150828160051b87010184880160005b83811015611b4057603f19898403018552815160c08151855288820151818a870152611af1828701826119b3565b915050878201518886015260608083015186830382880152611b1383826119b3565b60808581015115159089015260a09485015194909701939093525050509386019390860190600101611ac3565b509098975050505050505050565b60008060408385031215611b6157600080fd5b50508035926020909101359150565b86815260c060208201526000611b8960c08301886119b3565b8660408401528281036060840152611ba181876119b3565b9415156080840152505060a00152949350505050565b634e487b7160e01b600052604160045260246000fd5b60006001600160401b0380841115611be757611be7611bb7565b604051601f8501601f19908116603f01168101908282118183101715611c0f57611c0f611bb7565b81604052809350858152868686011115611c2857600080fd5b858560208301376000602087830101525050509392505050565b600082601f830112611c5357600080fd5b61109583833560208501611bcd565b600080600060608486031215611c7757600080fd5b83356001600160401b0380821115611c8e57600080fd5b611c9a87838801611c42565b94506020860135915080821115611cb057600080fd5b50611cbd86828701611c42565b925050604084013590509250925092565b600060208284031215611ce057600080fd5b61109582611a1f565b60008060408385031215611cfc57600080fd5b611d0583611a1f565b915060208301358015158114611d1a57600080fd5b809150509250929050565b60008060008060808587031215611d3b57600080fd5b611d4485611a1f565b9350611d5260208601611a1f565b92506040850135915060608501356001600160401b03811115611d7457600080fd5b8501601f81018713611d8557600080fd5b611d9487823560208401611bcd565b91505092959194509250565b60008060408385031215611db357600080fd5b611dbc83611a1f565b9150611dca60208401611a1f565b90509250929050565b600181811c90821680611de757607f821691505b60208210810361079d57634e487b7160e01b600052602260045260246000fd5b6001600160a01b0393841681526020810192909252909116604082015260600190565b634e487b7160e01b600052601160045260246000fd5b8181038181111561043857610438611e2a565b634e487b7160e01b600052603260045260246000fd5b600061ffff808316818103611e8057611e80611e2a565b6001019392505050565b808202811582820484141761043857610438611e2a565b600082611ebe57634e487b7160e01b600052601260045260246000fd5b500490565b7f68747470733a2f2f6c6176656e6465722d696d6167696e61746976652d63617081527f79626172612d3939342e6d7970696e6174612e636c6f75642f697066732f0000602082015260008251611f2181603e85016020870161198f565b91909101603e0192915050565b601f821115610b6957600081815260208120601f850160051c81016020861015611f555750805b601f850160051c820191505b81811015611f7457828155600101611f61565b505050505050565b81516001600160401b03811115611f9557611f95611bb7565b611fa981611fa38454611dd3565b84611f2e565b602080601f831160018114611fde5760008415611fc65750858301515b600019600386901b1c1916600185901b178555611f74565b600085815260208120601f198616915b8281101561200d57888601518255948401946001909101908401611fee565b508582101561202b5787850151600019600388901b60f8161c191681555b5050505050600190811b01905550565b60006001820161204d5761204d611e2a565b5060010190565b6000835161206681846020880161198f565b83519083019061207a81836020880161198f565b01949350505050565b6001600160a01b03858116825284166020820152604081018390526080606082018190526000906120b6908301846119b3565b9695505050505050565b6000602082840312156120d257600080fd5b81516110958161195956fea164736f6c6343000814000a","linkReferences":{}},"methodIdentifiers":{"OWNER_FEE_PERCENTAGE()":"ae1911fc","PERCENTAGE_DIVISOR()":"caf29765","approve(address,uint256)":"095ea7b3","balanceOf(address)":"70a08231","createToken(string,string,uint256)":"5b060530","getAllTokens()":"2a5c792a","getApproved(uint256)":"081812fc","getOwner()":"893d20e8","getOwnerTokens(address)":"d63d4af0","isApprovedForAll(address,address)":"e985e9c5","name()":"06fdde03","owner()":"8da5cb5b","ownerOf(uint256)":"6352211e","purchaseToken(uint256,uint256)":"301c5b90","safeTransferFrom(address,address,uint256)":"42842e0e","safeTransferFrom(address,address,uint256,bytes)":"b88d4fde","setApprovalForAll(address,bool)":"a22cb465","supportsInterface(bytes4)":"01ffc9a7","symbol()":"95d89b41","tokenURI(uint256)":"c87b56dd","tokensCreated(uint256)":"41abf571","totalSupply()":"18160ddd","transferFrom(address,address,uint256)":"23b872dd"},"id":15}