{"abi":[{"type":"function","name":"approve","inputs":[{"name":"spender","type":"address","internalType":"address"},{"name":"id","type":"uint256","internalType":"uint256"}],"outputs":[],"stateMutability":"payable"},{"type":"function","name":"balanceOf","inputs":[{"name":"owner","type":"address","internalType":"address"}],"outputs":[{"name":"","type":"uint256","internalType":"uint256"}],"stateMutability":"view"},{"type":"function","name":"getApproved","inputs":[{"name":"id","type":"uint256","internalType":"uint256"}],"outputs":[{"name":"","type":"address","internalType":"address"}],"stateMutability":"view"},{"type":"function","name":"initialize","inputs":[{"name":"name_","type":"string","internalType":"string"},{"name":"symbol_","type":"string","internalType":"string"}],"outputs":[],"stateMutability":"nonpayable"},{"type":"function","name":"isApprovedForAll","inputs":[{"name":"owner","type":"address","internalType":"address"},{"name":"operator","type":"address","internalType":"address"}],"outputs":[{"name":"","type":"bool","internalType":"bool"}],"stateMutability":"view"},{"type":"function","name":"name","inputs":[],"outputs":[{"name":"","type":"string","internalType":"string"}],"stateMutability":"view"},{"type":"function","name":"ownerOf","inputs":[{"name":"id","type":"uint256","internalType":"uint256"}],"outputs":[{"name":"owner","type":"address","internalType":"address"}],"stateMutability":"view"},{"type":"function","name":"safeTransferFrom","inputs":[{"name":"from","type":"address","internalType":"address"},{"name":"to","type":"address","internalType":"address"},{"name":"id","type":"uint256","internalType":"uint256"}],"outputs":[],"stateMutability":"payable"},{"type":"function","name":"safeTransferFrom","inputs":[{"name":"from","type":"address","internalType":"address"},{"name":"to","type":"address","internalType":"address"},{"name":"id","type":"uint256","internalType":"uint256"},{"name":"data","type":"bytes","internalType":"bytes"}],"outputs":[],"stateMutability":"payable"},{"type":"function","name":"setApprovalForAll","inputs":[{"name":"operator","type":"address","internalType":"address"},{"name":"approved","type":"bool","internalType":"bool"}],"outputs":[],"stateMutability":"nonpayable"},{"type":"function","name":"supportsInterface","inputs":[{"name":"interfaceId","type":"bytes4","internalType":"bytes4"}],"outputs":[{"name":"","type":"bool","internalType":"bool"}],"stateMutability":"view"},{"type":"function","name":"symbol","inputs":[],"outputs":[{"name":"","type":"string","internalType":"string"}],"stateMutability":"view"},{"type":"function","name":"tokenURI","inputs":[{"name":"id","type":"uint256","internalType":"uint256"}],"outputs":[{"name":"","type":"string","internalType":"string"}],"stateMutability":"view"},{"type":"function","name":"transferFrom","inputs":[{"name":"from","type":"address","internalType":"address"},{"name":"to","type":"address","internalType":"address"},{"name":"id","type":"uint256","internalType":"uint256"}],"outputs":[],"stateMutability":"payable"},{"type":"event","name":"Approval","inputs":[{"name":"_owner","type":"address","indexed":true,"internalType":"address"},{"name":"_approved","type":"address","indexed":true,"internalType":"address"},{"name":"_tokenId","type":"uint256","indexed":true,"internalType":"uint256"}],"anonymous":false},{"type":"event","name":"ApprovalForAll","inputs":[{"name":"_owner","type":"address","indexed":true,"internalType":"address"},{"name":"_operator","type":"address","indexed":true,"internalType":"address"},{"name":"_approved","type":"bool","indexed":false,"internalType":"bool"}],"anonymous":false},{"type":"event","name":"Transfer","inputs":[{"name":"_from","type":"address","indexed":true,"internalType":"address"},{"name":"_to","type":"address","indexed":true,"internalType":"address"},{"name":"_tokenId","type":"uint256","indexed":true,"internalType":"uint256"}],"anonymous":false}],"bytecode":{"object":"0x608060405234801561001057600080fd5b50610eeb806100206000396000f3fe6080604052600436106100ad5760003560e01c806301ffc9a7146100b257806306fdde03146100e7578063081812fc14610109578063095ea7b31461015757806323b872dd1461016c57806342842e0e1461017f5780634cd88b76146101925780636352211e146101b257806370a08231146101d257806395d89b4114610200578063a22cb46514610215578063b88d4fde14610235578063c87b56dd14610248578063e985e9c514610269575b600080fd5b3480156100be57600080fd5b506100d26100cd36600461097f565b6102b2565b60405190151581526020015b60405180910390f35b3480156100f357600080fd5b506100fc610304565b6040516100de91906109e9565b34801561011557600080fd5b5061013f6101243660046109fc565b6000908152600460205260409020546001600160a01b031690565b6040516001600160a01b0390911681526020016100de565b61016a610165366004610a2c565b610396565b005b61016a61017a366004610a56565b610460565b61016a61018d366004610a56565b610638565b34801561019e57600080fd5b5061016a6101ad366004610b3d565b610704565b3480156101be57600080fd5b5061013f6101cd3660046109fc565b610778565b3480156101de57600080fd5b506101f26101ed366004610ba0565b6107cf565b6040519081526020016100de565b34801561020c57600080fd5b506100fc610832565b34801561022157600080fd5b5061016a610230366004610bbb565b610841565b61016a610243366004610bf7565b6108ad565b34801561025457600080fd5b506100fc6102633660046109fc565b50606090565b34801561027557600080fd5b506100d2610284366004610c72565b6001600160a01b03918216600090815260056020908152604080832093909416825291909152205460ff1690565b60006301ffc9a760e01b6001600160e01b0319831614806102e357506380ac58cd60e01b6001600160e01b03198316145b806102fe5750635b5e139f60e01b6001600160e01b03198316145b92915050565b60606000805461031390610ca5565b80601f016020809104026020016040519081016040528092919081815260200182805461033f90610ca5565b801561038c5780601f106103615761010080835404028352916020019161038c565b820191906000526020600020905b81548152906001019060200180831161036f57829003601f168201915b5050505050905090565b6000818152600260205260409020546001600160a01b0316338114806103df57506001600160a01b038116600090815260056020908152604080832033845290915290205460ff165b6104045760405162461bcd60e51b81526004016103fb90610cdf565b60405180910390fd5b60008281526004602052604080822080546001600160a01b0319166001600160a01b0387811691821790925591518593918516917f8c5be1e5ebec7d5bd14f71427d1e84f3dd0314c0f7b2291e5b200ac8c7c3b92591a4505050565b6000818152600260205260409020546001600160a01b038481169116146104b65760405162461bcd60e51b815260206004820152600a60248201526957524f4e475f46524f4d60b01b60448201526064016103fb565b6001600160a01b0382166105005760405162461bcd60e51b81526020600482015260116024820152701253959053125117d49150d25412515395607a1b60448201526064016103fb565b336001600160a01b038416148061053a57506001600160a01b038316600090815260056020908152604080832033845290915290205460ff165b8061055b57506000818152600460205260409020546001600160a01b031633145b6105775760405162461bcd60e51b81526004016103fb90610cdf565b6001600160a01b038316600090815260036020526040812080549161059b83610d1d565b90915550506001600160a01b03821660009081526003602052604081208054916105c483610d34565b9091555050600081815260026020908152604080832080546001600160a01b038088166001600160a01b031992831681179093556004909452828520805490911690559051849391928716917fddf252ad1be2c89b69c2b068fc378daa952ba7f163c4a11628f55a4df523b3ef91a4505050565b610643838383610460565b813b15806106e35750604051630a85bd0160e11b8082523360048301526001600160a01b03858116602484015260448301849052608060648401526000608484015290919084169063150b7a029060a4016020604051808303816000875af11580156106b3573d6000803e3d6000fd5b505050506040513d601f19601f820116820180604052508101906106d79190610d4d565b6001600160e01b031916145b6106ff5760405162461bcd60e51b81526004016103fb90610d6a565b505050565b60065460ff161561074d5760405162461bcd60e51b81526020600482015260136024820152721053149150511657d253925512505312569151606a1b60448201526064016103fb565b60006107598382610de2565b5060016107668282610de2565b50506006805460ff1916600117905550565b6000818152600260205260409020546001600160a01b0316806107ca5760405162461bcd60e51b815260206004820152600a6024820152691393d517d3525395115160b21b60448201526064016103fb565b919050565b60006001600160a01b0382166108165760405162461bcd60e51b815260206004820152600c60248201526b5a45524f5f4144445245535360a01b60448201526064016103fb565b506001600160a01b031660009081526003602052604090205490565b60606001805461031390610ca5565b3360008181526005602090815260408083206001600160a01b03871680855290835292819020805460ff191686151590811790915590519081529192917f17307eab39ab6107e8899845ad3d59bd9653f200f220920489ca2b5937696c31910160405180910390a35050565b6108b8848484610460565b823b15806109445750604051630a85bd0160e11b808252906001600160a01b0385169063150b7a02906108f5903390899088908890600401610ea1565b6020604051808303816000875af1158015610914573d6000803e3d6000fd5b505050506040513d601f19601f820116820180604052508101906109389190610d4d565b6001600160e01b031916145b6109605760405162461bcd60e51b81526004016103fb90610d6a565b50505050565b6001600160e01b03198116811461097c57600080fd5b50565b60006020828403121561099157600080fd5b813561099c81610966565b9392505050565b6000815180845260005b818110156109c9576020818501810151868301820152016109ad565b506000602082860101526020601f19601f83011685010191505092915050565b60208152600061099c60208301846109a3565b600060208284031215610a0e57600080fd5b5035919050565b80356001600160a01b03811681146107ca57600080fd5b60008060408385031215610a3f57600080fd5b610a4883610a15565b946020939093013593505050565b600080600060608486031215610a6b57600080fd5b610a7484610a15565b9250610a8260208501610a15565b9150604084013590509250925092565b634e487b7160e01b600052604160045260246000fd5b60006001600160401b0380841115610ac257610ac2610a92565b604051601f8501601f19908116603f01168101908282118183101715610aea57610aea610a92565b81604052809350858152868686011115610b0357600080fd5b858560208301376000602087830101525050509392505050565b600082601f830112610b2e57600080fd5b61099c83833560208501610aa8565b60008060408385031215610b5057600080fd5b82356001600160401b0380821115610b6757600080fd5b610b7386838701610b1d565b93506020850135915080821115610b8957600080fd5b50610b9685828601610b1d565b9150509250929050565b600060208284031215610bb257600080fd5b61099c82610a15565b60008060408385031215610bce57600080fd5b610bd783610a15565b915060208301358015158114610bec57600080fd5b809150509250929050565b60008060008060808587031215610c0d57600080fd5b610c1685610a15565b9350610c2460208601610a15565b92506040850135915060608501356001600160401b03811115610c4657600080fd5b8501601f81018713610c5757600080fd5b610c6687823560208401610aa8565b91505092959194509250565b60008060408385031215610c8557600080fd5b610c8e83610a15565b9150610c9c60208401610a15565b90509250929050565b600181811c90821680610cb957607f821691505b602082108103610cd957634e487b7160e01b600052602260045260246000fd5b50919050565b6020808252600e908201526d1393d517d055551213d49256915160921b604082015260600190565b634e487b7160e01b600052601160045260246000fd5b600081610d2c57610d2c610d07565b506000190190565b600060018201610d4657610d46610d07565b5060010190565b600060208284031215610d5f57600080fd5b815161099c81610966565b60208082526010908201526f155394d0519157d49150d2541251539560821b604082015260600190565b601f8211156106ff57600081815260208120601f850160051c81016020861015610dbb5750805b601f850160051c820191505b81811015610dda57828155600101610dc7565b505050505050565b81516001600160401b03811115610dfb57610dfb610a92565b610e0f81610e098454610ca5565b84610d94565b602080601f831160018114610e445760008415610e2c5750858301515b600019600386901b1c1916600185901b178555610dda565b600085815260208120601f198616915b82811015610e7357888601518255948401946001909101908401610e54565b5085821015610e915787850151600019600388901b60f8161c191681555b5050505050600190811b01905550565b6001600160a01b0385811682528416602082015260408101839052608060608201819052600090610ed4908301846109a3565b969550505050505056fea164736f6c6343000814000a","linkReferences":{}},"methodIdentifiers":{"approve(address,uint256)":"095ea7b3","balanceOf(address)":"70a08231","getApproved(uint256)":"081812fc","initialize(string,string)":"4cd88b76","isApprovedForAll(address,address)":"e985e9c5","name()":"06fdde03","ownerOf(uint256)":"6352211e","safeTransferFrom(address,address,uint256)":"42842e0e","safeTransferFrom(address,address,uint256,bytes)":"b88d4fde","setApprovalForAll(address,bool)":"a22cb465","supportsInterface(bytes4)":"01ffc9a7","symbol()":"95d89b41","tokenURI(uint256)":"c87b56dd","transferFrom(address,address,uint256)":"23b872dd"},"id":22}