{"abi":[{"type":"constructor","inputs":[],"stateMutability":"nonpayable"},{"type":"function","name":"OWNER_FEE_PERCENTAGE","inputs":[],"outputs":[{"name":"","type":"uint256","internalType":"uint256"}],"stateMutability":"view"},{"type":"function","name":"PERCENTAGE_DIVISOR","inputs":[],"outputs":[{"name":"","type":"uint256","internalType":"uint256"}],"stateMutability":"view"},{"type":"function","name":"approve","inputs":[{"name":"to","type":"address","internalType":"address"},{"name":"tokenId","type":"uint256","internalType":"uint256"}],"outputs":[],"stateMutability":"nonpayable"},{"type":"function","name":"balanceOf","inputs":[{"name":"owner","type":"address","internalType":"address"}],"outputs":[{"name":"","type":"uint256","internalType":"uint256"}],"stateMutability":"view"},{"type":"function","name":"createToken","inputs":[{"name":"metadata","type":"string","internalType":"string"},{"name":"name","type":"string","internalType":"string"},{"name":"initValue","type":"uint256","internalType":"uint256"}],"outputs":[],"stateMutability":"nonpayable"},{"type":"function","name":"getApproved","inputs":[{"name":"tokenId","type":"uint256","internalType":"uint256"}],"outputs":[{"name":"","type":"address","internalType":"address"}],"stateMutability":"view"},{"type":"function","name":"getOwner","inputs":[],"outputs":[{"name":"","type":"address","internalType":"address"}],"stateMutability":"view"},{"type":"function","name":"isApprovedForAll","inputs":[{"name":"owner","type":"address","internalType":"address"},{"name":"operator","type":"address","internalType":"address"}],"outputs":[{"name":"","type":"bool","internalType":"bool"}],"stateMutability":"view"},{"type":"function","name":"name","inputs":[],"outputs":[{"name":"","type":"string","internalType":"string"}],"stateMutability":"view"},{"type":"function","name":"owner","inputs":[],"outputs":[{"name":"","type":"address","internalType":"address"}],"stateMutability":"view"},{"type":"function","name":"ownerOf","inputs":[{"name":"tokenId","type":"uint256","internalType":"uint256"}],"outputs":[{"name":"","type":"address","internalType":"address"}],"stateMutability":"view"},{"type":"function","name":"pause","inputs":[],"outputs":[],"stateMutability":"nonpayable"},{"type":"function","name":"paused","inputs":[],"outputs":[{"name":"","type":"bool","internalType":"bool"}],"stateMutability":"view"},{"type":"function","name":"purchaseToken","inputs":[{"name":"tokenId","type":"uint256","internalType":"uint256"}],"outputs":[],"stateMutability":"payable"},{"type":"function","name":"safeTransferFrom","inputs":[{"name":"from","type":"address","internalType":"address"},{"name":"to","type":"address","internalType":"address"},{"name":"tokenId","type":"uint256","internalType":"uint256"}],"outputs":[],"stateMutability":"nonpayable"},{"type":"function","name":"safeTransferFrom","inputs":[{"name":"from","type":"address","internalType":"address"},{"name":"to","type":"address","internalType":"address"},{"name":"tokenId","type":"uint256","internalType":"uint256"},{"name":"data","type":"bytes","internalType":"bytes"}],"outputs":[],"stateMutability":"nonpayable"},{"type":"function","name":"setApprovalForAll","inputs":[{"name":"operator","type":"address","internalType":"address"},{"name":"approved","type":"bool","internalType":"bool"}],"outputs":[],"stateMutability":"nonpayable"},{"type":"function","name":"supportsInterface","inputs":[{"name":"interfaceId","type":"bytes4","internalType":"bytes4"}],"outputs":[{"name":"","type":"bool","internalType":"bool"}],"stateMutability":"view"},{"type":"function","name":"symbol","inputs":[],"outputs":[{"name":"","type":"string","internalType":"string"}],"stateMutability":"view"},{"type":"function","name":"tokenURI","inputs":[{"name":"tokenId","type":"uint256","internalType":"uint256"}],"outputs":[{"name":"","type":"string","internalType":"string"}],"stateMutability":"view"},{"type":"function","name":"tokensCreated","inputs":[{"name":"","type":"uint256","internalType":"uint256"}],"outputs":[{"name":"tokenId","type":"uint256","internalType":"uint256"},{"name":"name","type":"string","internalType":"string"},{"name":"initValue","type":"uint256","internalType":"uint256"},{"name":"metadata","type":"string","internalType":"string"},{"name":"available","type":"bool","internalType":"bool"},{"name":"dateCheckIn","type":"uint256","internalType":"uint256"}],"stateMutability":"view"},{"type":"function","name":"totalSupply","inputs":[],"outputs":[{"name":"","type":"uint256","internalType":"uint256"}],"stateMutability":"view"},{"type":"function","name":"transferFrom","inputs":[{"name":"from","type":"address","internalType":"address"},{"name":"to","type":"address","internalType":"address"},{"name":"tokenId","type":"uint256","internalType":"uint256"}],"outputs":[],"stateMutability":"nonpayable"},{"type":"function","name":"unpause","inputs":[],"outputs":[],"stateMutability":"nonpayable"},{"type":"function","name":"withdraw","inputs":[{"name":"amount","type":"uint256","internalType":"uint256"}],"outputs":[],"stateMutability":"nonpayable"},{"type":"event","name":"Approval","inputs":[{"name":"owner","type":"address","indexed":true,"internalType":"address"},{"name":"approved","type":"address","indexed":true,"internalType":"address"},{"name":"tokenId","type":"uint256","indexed":true,"internalType":"uint256"}],"anonymous":false},{"type":"event","name":"ApprovalForAll","inputs":[{"name":"owner","type":"address","indexed":true,"internalType":"address"},{"name":"operator","type":"address","indexed":true,"internalType":"address"},{"name":"approved","type":"bool","indexed":false,"internalType":"bool"}],"anonymous":false},{"type":"event","name":"BatchMetadataUpdate","inputs":[{"name":"_fromTokenId","type":"uint256","indexed":false,"internalType":"uint256"},{"name":"_toTokenId","type":"uint256","indexed":false,"internalType":"uint256"}],"anonymous":false},{"type":"event","name":"MetadataUpdate","inputs":[{"name":"_tokenId","type":"uint256","indexed":false,"internalType":"uint256"}],"anonymous":false},{"type":"event","name":"Paused","inputs":[{"name":"account","type":"address","indexed":false,"internalType":"address"}],"anonymous":false},{"type":"event","name":"TokenPurchased","inputs":[{"name":"buyer","type":"address","indexed":true,"internalType":"address"},{"name":"tokenId","type":"uint256","indexed":true,"internalType":"uint256"},{"name":"amount","type":"uint256","indexed":false,"internalType":"uint256"}],"anonymous":false},{"type":"event","name":"Transfer","inputs":[{"name":"from","type":"address","indexed":true,"internalType":"address"},{"name":"to","type":"address","indexed":true,"internalType":"address"},{"name":"tokenId","type":"uint256","indexed":true,"internalType":"uint256"}],"anonymous":false},{"type":"event","name":"Unpaused","inputs":[{"name":"account","type":"address","indexed":false,"internalType":"address"}],"anonymous":false},{"type":"event","name":"Withdraw","inputs":[{"name":"to","type":"address","indexed":false,"internalType":"address"},{"name":"amount","type":"uint256","indexed":false,"internalType":"uint256"}],"anonymous":false},{"type":"event","name":"callCreateToken","inputs":[{"name":"tokenId","type":"uint256","indexed":true,"internalType":"uint256"}],"anonymous":false},{"type":"error","name":"ERC721IncorrectOwner","inputs":[{"name":"sender","type":"address","internalType":"address"},{"name":"tokenId","type":"uint256","internalType":"uint256"},{"name":"owner","type":"address","internalType":"address"}]},{"type":"error","name":"ERC721InsufficientApproval","inputs":[{"name":"operator","type":"address","internalType":"address"},{"name":"tokenId","type":"uint256","internalType":"uint256"}]},{"type":"error","name":"ERC721InvalidApprover","inputs":[{"name":"approver","type":"address","internalType":"address"}]},{"type":"error","name":"ERC721InvalidOperator","inputs":[{"name":"operator","type":"address","internalType":"address"}]},{"type":"error","name":"ERC721InvalidOwner","inputs":[{"name":"owner","type":"address","internalType":"address"}]},{"type":"error","name":"ERC721InvalidReceiver","inputs":[{"name":"receiver","type":"address","internalType":"address"}]},{"type":"error","name":"ERC721InvalidSender","inputs":[{"name":"sender","type":"address","internalType":"address"}]},{"type":"error","name":"ERC721NonexistentToken","inputs":[{"name":"tokenId","type":"uint256","internalType":"uint256"}]}],"bytecode":{"object":"0x60806040523480156200001157600080fd5b506040518060400160405280600981526020016811985b991bdb53919560ba1b815250604051806040016040528060038152602001622320a760e91b815250816000908162000061919062000137565b50600162000070828262000137565b5050600980546001600160a81b0319163360ff60a01b19161790555062000203565b634e487b7160e01b600052604160045260246000fd5b600181811c90821680620000bd57607f821691505b602082108103620000de57634e487b7160e01b600052602260045260246000fd5b50919050565b601f8211156200013257600081815260208120601f850160051c810160208610156200010d5750805b601f850160051c820191505b818110156200012e5782815560010162000119565b5050505b505050565b81516001600160401b0381111562000153576200015362000092565b6200016b81620001648454620000a8565b84620000e4565b602080601f831160018114620001a357600084156200018a5750858301515b600019600386901b1c1916600185901b1785556200012e565b600085815260208120601f198616915b82811015620001d457888601518255948401946001909101908401620001b3565b5085821015620001f35787850151600019600388901b60f8161c191681555b5050505050600190811b01905550565b611beb80620002136000396000f3fe6080604052600436106101365760003560e01c80636352211e116100b15780636352211e146102ed57806370a082311461030d5780638456cb591461032d578063893d20e8146103425780638da5cb5b1461036057806395d89b4114610380578063a22cb46514610395578063ae1911fc146103b5578063b88d4fde146103ca578063c2db2c42146103ea578063c87b56dd146103fd578063caf297651461041d578063e985e9c51461043257600080fd5b806301ffc9a71461013b57806306fdde0314610170578063081812fc14610192578063095ea7b3146101bf57806318160ddd146101e157806323b872dd146102055780632e1a7d4d146102255780633f4ba83a1461024557806341abf5711461025a57806342842e0e1461028c5780635b060530146102ac5780635c975abb146102cc575b600080fd5b34801561014757600080fd5b5061015b610156366004611532565b610452565b60405190151581526020015b60405180910390f35b34801561017c57600080fd5b5061018561047d565b604051610167919061159f565b34801561019e57600080fd5b506101b26101ad3660046115b2565b61050f565b60405161016791906115cb565b3480156101cb57600080fd5b506101df6101da3660046115fb565b610524565b005b3480156101ed57600080fd5b506101f760075481565b604051908152602001610167565b34801561021157600080fd5b506101df610220366004611625565b610533565b34801561023157600080fd5b506101df6102403660046115b2565b6105b3565b34801561025157600080fd5b506101df61067f565b34801561026657600080fd5b5061027a6102753660046115b2565b6106c6565b60405161016796959493929190611661565b34801561029857600080fd5b506101df6102a7366004611625565b61080f565b3480156102b857600080fd5b506101df6102c7366004611753565b61082f565b3480156102d857600080fd5b5060095461015b90600160a01b900460ff1681565b3480156102f957600080fd5b506101b26103083660046115b2565b61096f565b34801561031957600080fd5b506101f76103283660046117bf565b61097a565b34801561033957600080fd5b506101df6109c2565b34801561034e57600080fd5b506009546001600160a01b03166101b2565b34801561036c57600080fd5b506009546101b2906001600160a01b031681565b34801561038c57600080fd5b50610185610a05565b3480156103a157600080fd5b506101df6103b03660046117da565b610a14565b3480156103c157600080fd5b506101f7600581565b3480156103d657600080fd5b506101df6103e5366004611816565b610a1f565b6101df6103f83660046115b2565b610a36565b34801561040957600080fd5b506101856104183660046115b2565b610b90565b34801561042957600080fd5b506101f7606481565b34801561043e57600080fd5b5061015b61044d366004611891565b610ca1565b60006001600160e01b03198216632483248360e11b1480610477575061047782610ccf565b92915050565b60606000805461048c906118c4565b80601f01602080910402602001604051908101604052809291908181526020018280546104b8906118c4565b80156105055780601f106104da57610100808354040283529160200191610505565b820191906000526020600020905b8154815290600101906020018083116104e857829003601f168201915b5050505050905090565b600061051a82610d1f565b5061047782610d57565b61052f828233610d72565b5050565b6001600160a01b038216610566576000604051633250574960e11b815260040161055d91906115cb565b60405180910390fd5b6000610573838333610d7f565b9050836001600160a01b0316816001600160a01b0316146105ad578382826040516364283d7b60e01b815260040161055d939291906118fe565b50505050565b478111156105fa5760405162461bcd60e51b8152602060048201526014602482015273496e73756666696369656e742062616c616e636560601b604482015260640161055d565b6009546040516001600160a01b039091169082156108fc029083906000818181858888f19350505050158015610634573d6000803e3d6000fd5b506009546040517f884edad9ce6fa2440d8a54cc123490eb96d2768479d49ff9c7366125a942436491610674916001600160a01b03909116908490611921565b60405180910390a150565b6009805460ff60a01b191690556040517f5db9ee0a495bf2e6ff9c91a7834c1ba4fdd244a5e8aa4e537bd38aeae4b073aa906106bc9033906115cb565b60405180910390a1565b600860205260009081526040902080546001820180549192916106e8906118c4565b80601f0160208091040260200160405190810160405280929190818152602001828054610714906118c4565b80156107615780601f1061073657610100808354040283529160200191610761565b820191906000526020600020905b81548152906001019060200180831161074457829003601f168201915b50505050509080600201549080600301805461077c906118c4565b80601f01602080910402602001604051908101604052809291908181526020018280546107a8906118c4565b80156107f55780601f106107ca576101008083540402835291602001916107f5565b820191906000526020600020905b8154815290600101906020018083116107d857829003601f168201915b505050506004830154600590930154919260ff1691905086565b61082a83838360405180602001604052806000815250610a1f565b505050565b600954600160a01b900460ff16156108595760405162461bcd60e51b815260040161055d9061193a565b600754604051600090610870908690602001611966565b60408051601f1981840301815260c083018252848352602083810188815284840188905260608501839052600160808601819052600060a08701819052888152600890935293909120845181559051919450918201906108d09082611a1b565b5060408201516002820155606082015160038201906108ef9082611a1b565b50608082015160048201805460ff191691151591909117905560a09091015160059091015561091e3383610e73565b6109288282610ed8565b6007805490600061093883611af0565b909155505060405182907fc5ae46c0a99c5e8dab5e6d897bc2b469f869f2a9f9b1843c41537901f1d8a5e390600090a25050505050565b600061047782610d1f565b60006001600160a01b0382166109a65760006040516322718ad960e21b815260040161055d91906115cb565b506001600160a01b031660009081526003602052604090205490565b6009805460ff60a01b1916600160a01b1790556040517f62e78cea01bee320cd4e420270b5ea74000d11b0c9f74754ebdbfc544b05a258906106bc9033906115cb565b60606001805461048c906118c4565b61052f338383610f28565b610a2a848484610533565b6105ad84848484610fb6565b600954600160a01b900460ff1615610a605760405162461bcd60e51b815260040161055d9061193a565b60008181526008602052604090206004015460ff16610ab75760405162461bcd60e51b8152602060048201526013602482015272546f6b656e206e6f7420617661696c61626c6560681b604482015260640161055d565b60006064610ac6600534611b09565b610ad09190611b20565b90506000610ade8234611b42565b9050610ae98361096f565b6001600160a01b03166108fc829081150290604051600060405180830381858888f19350505050158015610b21573d6000803e3d6000fd5b50610b35610b2e8461096f565b33856110cd565b6000838152600860209081526040918290204260058201553460029091018190559151918252849133917f3ceffd410054fdaed44f598ff5c1fb450658778e2241892da4aa646979dee61791015b60405180910390a3505050565b6060610b9b82610d1f565b5060008281526006602052604081208054610bb5906118c4565b80601f0160208091040260200160405190810160405280929190818152602001828054610be1906118c4565b8015610c2e5780601f10610c0357610100808354040283529160200191610c2e565b820191906000526020600020905b815481529060010190602001808311610c1157829003601f168201915b505050505090506000610c4c60408051602081019091526000815290565b90508051600003610c5e575092915050565b815115610c90578082604051602001610c78929190611b55565b60405160208183030381529060405292505050919050565b610c9984611169565b949350505050565b6001600160a01b03918216600090815260056020908152604080832093909416825291909152205460ff1690565b60006001600160e01b031982166380ac58cd60e01b1480610d0057506001600160e01b03198216635b5e139f60e01b145b8061047757506301ffc9a760e01b6001600160e01b0319831614610477565b600080610d2b836111de565b90506001600160a01b03811661047757604051637e27328960e01b81526004810184905260240161055d565b6000908152600460205260409020546001600160a01b031690565b61082a83838360016111f9565b600080610d8b846111de565b90506001600160a01b03831615610da757610da78184866112f6565b6001600160a01b03811615610de557610dc46000856000806111f9565b6001600160a01b038116600090815260036020526040902080546000190190555b6001600160a01b03851615610e14576001600160a01b0385166000908152600360205260409020805460010190555b60008481526002602052604080822080546001600160a01b0319166001600160a01b0389811691821790925591518793918516917fddf252ad1be2c89b69c2b068fc378daa952ba7f163c4a11628f55a4df523b3ef91a4949350505050565b6001600160a01b038216610e9d576000604051633250574960e11b815260040161055d91906115cb565b6000610eab83836000610d7f565b90506001600160a01b0381161561082a5760006040516339e3563760e11b815260040161055d91906115cb565b6000828152600660205260409020610ef08282611a1b565b506040518281527ff8e1a15aba9398e019f0b49df1a4fde98ee17ae345cb5f6b5e2c27f5033e8ce79060200160405180910390a15050565b6001600160a01b038216610f515781604051630b61174360e31b815260040161055d91906115cb565b6001600160a01b03838116600081815260056020908152604080832094871680845294825291829020805460ff191686151590811790915591519182527f17307eab39ab6107e8899845ad3d59bd9653f200f220920489ca2b5937696c319101610b83565b6001600160a01b0383163b156105ad57604051630a85bd0160e11b81526001600160a01b0384169063150b7a0290610ff8903390889087908790600401611b84565b6020604051808303816000875af1925050508015611033575060408051601f3d908101601f1916820190925261103091810190611bc1565b60015b611093573d808015611061576040519150601f19603f3d011682016040523d82523d6000602084013e611066565b606091505b50805160000361108b5783604051633250574960e11b815260040161055d91906115cb565b805181602001fd5b6001600160e01b03198116630a85bd0160e11b146110c65783604051633250574960e11b815260040161055d91906115cb565b5050505050565b6001600160a01b0382166110f7576000604051633250574960e11b815260040161055d91906115cb565b600061110583836000610d7f565b90506001600160a01b03811661113157604051637e27328960e01b81526004810183905260240161055d565b836001600160a01b0316816001600160a01b0316146105ad578382826040516364283d7b60e01b815260040161055d939291906118fe565b606061117482610d1f565b50600061118c60408051602081019091526000815290565b905060008151116111ac57604051806020016040528060008152506111d7565b806111b68461134c565b6040516020016111c7929190611b55565b6040516020818303038152906040525b9392505050565b6000908152600260205260409020546001600160a01b031690565b808061120d57506001600160a01b03821615155b156112c657600061121d84610d1f565b90506001600160a01b038316158015906112495750826001600160a01b0316816001600160a01b031614155b801561125c575061125a8184610ca1565b155b1561127c578260405163a9fbf51f60e01b815260040161055d91906115cb565b81156112c45783856001600160a01b0316826001600160a01b03167f8c5be1e5ebec7d5bd14f71427d1e84f3dd0314c0f7b2291e5b200ac8c7c3b92560405160405180910390a45b505b5050600090815260046020526040902080546001600160a01b0319166001600160a01b0392909216919091179055565b6113018383836113de565b61082a576001600160a01b03831661132f57604051637e27328960e01b81526004810182905260240161055d565b818160405163177e802f60e01b815260040161055d929190611921565b6060600061135983611443565b60010190506000816001600160401b03811115611378576113786116a8565b6040519080825280601f01601f1916602001820160405280156113a2576020820181803683370190505b5090508181016020015b600019016f181899199a1a9b1b9c1cb0b131b232b360811b600a86061a8153600a85049450846113ac57509392505050565b60006001600160a01b03831615801590610c995750826001600160a01b0316846001600160a01b0316148061141857506114188484610ca1565b80610c995750826001600160a01b031661143183610d57565b6001600160a01b031614949350505050565b60008072184f03e93ff9f4daa797ed6e38ed64bf6a1f0160401b83106114825772184f03e93ff9f4daa797ed6e38ed64bf6a1f0160401b830492506040015b6904ee2d6d415b85acef8160201b83106114ac576904ee2d6d415b85acef8160201b830492506020015b662386f26fc1000083106114ca57662386f26fc10000830492506010015b6305f5e10083106114e2576305f5e100830492506008015b61271083106114f657612710830492506004015b60648310611508576064830492506002015b600a83106104775760010192915050565b6001600160e01b03198116811461152f57600080fd5b50565b60006020828403121561154457600080fd5b81356111d781611519565b60005b8381101561156a578181015183820152602001611552565b50506000910152565b6000815180845261158b81602086016020860161154f565b601f01601f19169290920160200192915050565b6020815260006111d76020830184611573565b6000602082840312156115c457600080fd5b5035919050565b6001600160a01b0391909116815260200190565b80356001600160a01b03811681146115f657600080fd5b919050565b6000806040838503121561160e57600080fd5b611617836115df565b946020939093013593505050565b60008060006060848603121561163a57600080fd5b611643846115df565b9250611651602085016115df565b9150604084013590509250925092565b86815260c06020820152600061167a60c0830188611573565b86604084015282810360608401526116928187611573565b9415156080840152505060a00152949350505050565b634e487b7160e01b600052604160045260246000fd5b60006001600160401b03808411156116d8576116d86116a8565b604051601f8501601f19908116603f01168101908282118183101715611700576117006116a8565b8160405280935085815286868601111561171957600080fd5b858560208301376000602087830101525050509392505050565b600082601f83011261174457600080fd5b6111d7838335602085016116be565b60008060006060848603121561176857600080fd5b83356001600160401b038082111561177f57600080fd5b61178b87838801611733565b945060208601359150808211156117a157600080fd5b506117ae86828701611733565b925050604084013590509250925092565b6000602082840312156117d157600080fd5b6111d7826115df565b600080604083850312156117ed57600080fd5b6117f6836115df565b91506020830135801515811461180b57600080fd5b809150509250929050565b6000806000806080858703121561182c57600080fd5b611835856115df565b9350611843602086016115df565b92506040850135915060608501356001600160401b0381111561186557600080fd5b8501601f8101871361187657600080fd5b611885878235602084016116be565b91505092959194509250565b600080604083850312156118a457600080fd5b6118ad836115df565b91506118bb602084016115df565b90509250929050565b600181811c908216806118d857607f821691505b6020821081036118f857634e487b7160e01b600052602260045260246000fd5b50919050565b6001600160a01b0393841681526020810192909252909116604082015260600190565b6001600160a01b03929092168252602082015260400190565b60208082526012908201527110dbdb9d1c9858dd081a5cc81c185d5cd95960721b604082015260600190565b7f68747470733a2f2f617a7572652d6269747465722d6772617373686f707065728152782d3938372e6d7970696e6174612e636c6f75642f697066732f60381b6020820152600082516119c081603985016020870161154f565b9190910160390192915050565b601f82111561082a57600081815260208120601f850160051c810160208610156119f45750805b601f850160051c820191505b81811015611a1357828155600101611a00565b505050505050565b81516001600160401b03811115611a3457611a346116a8565b611a4881611a4284546118c4565b846119cd565b602080601f831160018114611a7d5760008415611a655750858301515b600019600386901b1c1916600185901b178555611a13565b600085815260208120601f198616915b82811015611aac57888601518255948401946001909101908401611a8d565b5085821015611aca5787850151600019600388901b60f8161c191681555b5050505050600190811b01905550565b634e487b7160e01b600052601160045260246000fd5b600060018201611b0257611b02611ada565b5060010190565b808202811582820484141761047757610477611ada565b600082611b3d57634e487b7160e01b600052601260045260246000fd5b500490565b8181038181111561047757610477611ada565b60008351611b6781846020880161154f565b835190830190611b7b81836020880161154f565b01949350505050565b6001600160a01b0385811682528416602082015260408101839052608060608201819052600090611bb790830184611573565b9695505050505050565b600060208284031215611bd357600080fd5b81516111d78161151956fea164736f6c6343000814000a","linkReferences":{}},"methodIdentifiers":{"OWNER_FEE_PERCENTAGE()":"ae1911fc","PERCENTAGE_DIVISOR()":"caf29765","approve(address,uint256)":"095ea7b3","balanceOf(address)":"70a08231","createToken(string,string,uint256)":"5b060530","getApproved(uint256)":"081812fc","getOwner()":"893d20e8","isApprovedForAll(address,address)":"e985e9c5","name()":"06fdde03","owner()":"8da5cb5b","ownerOf(uint256)":"6352211e","pause()":"8456cb59","paused()":"5c975abb","purchaseToken(uint256)":"c2db2c42","safeTransferFrom(address,address,uint256)":"42842e0e","safeTransferFrom(address,address,uint256,bytes)":"b88d4fde","setApprovalForAll(address,bool)":"a22cb465","supportsInterface(bytes4)":"01ffc9a7","symbol()":"95d89b41","tokenURI(uint256)":"c87b56dd","tokensCreated(uint256)":"41abf571","totalSupply()":"18160ddd","transferFrom(address,address,uint256)":"23b872dd","unpause()":"3f4ba83a","withdraw(uint256)":"2e1a7d4d"},"id":37}