{"abi":[{"type":"constructor","inputs":[],"stateMutability":"nonpayable"},{"type":"function","name":"OWNER_FEE_PERCENTAGE","inputs":[],"outputs":[{"name":"","type":"uint256","internalType":"uint256"}],"stateMutability":"view"},{"type":"function","name":"PERCENTAGE_DIVISOR","inputs":[],"outputs":[{"name":"","type":"uint256","internalType":"uint256"}],"stateMutability":"view"},{"type":"function","name":"approve","inputs":[{"name":"to","type":"address","internalType":"address"},{"name":"tokenId","type":"uint256","internalType":"uint256"}],"outputs":[],"stateMutability":"nonpayable"},{"type":"function","name":"auctions","inputs":[{"name":"","type":"uint256","internalType":"uint256"}],"outputs":[{"name":"itemId","type":"uint256","internalType":"uint256"},{"name":"name","type":"string","internalType":"string"},{"name":"metadata","type":"string","internalType":"string"},{"name":"owner","type":"address","internalType":"address"},{"name":"startPrice","type":"uint256","internalType":"uint256"},{"name":"highestBid","type":"uint256","internalType":"uint256"},{"name":"highestBidder","type":"address","internalType":"address"},{"name":"endTime","type":"uint256","internalType":"uint256"},{"name":"ended","type":"bool","internalType":"bool"}],"stateMutability":"view"},{"type":"function","name":"balanceOf","inputs":[{"name":"owner","type":"address","internalType":"address"}],"outputs":[{"name":"","type":"uint256","internalType":"uint256"}],"stateMutability":"view"},{"type":"function","name":"bid","inputs":[{"name":"itemId","type":"uint256","internalType":"uint256"}],"outputs":[],"stateMutability":"payable"},{"type":"function","name":"createAuction","inputs":[{"name":"metadata","type":"string","internalType":"string"},{"name":"name","type":"string","internalType":"string"},{"name":"startPrice","type":"uint256","internalType":"uint256"},{"name":"duration","type":"uint256","internalType":"uint256"}],"outputs":[],"stateMutability":"nonpayable"},{"type":"function","name":"createToken","inputs":[{"name":"metadata","type":"string","internalType":"string"},{"name":"name","type":"string","internalType":"string"},{"name":"initValue","type":"uint256","internalType":"uint256"}],"outputs":[],"stateMutability":"nonpayable"},{"type":"function","name":"endAuction","inputs":[{"name":"itemId","type":"uint256","internalType":"uint256"}],"outputs":[],"stateMutability":"nonpayable"},{"type":"function","name":"getAllAuctions","inputs":[],"outputs":[{"name":"","type":"tuple[]","internalType":"struct AuctionCrypto.AuctionItem[]","components":[{"name":"itemId","type":"uint256","internalType":"uint256"},{"name":"name","type":"string","internalType":"string"},{"name":"metadata","type":"string","internalType":"string"},{"name":"owner","type":"address","internalType":"address"},{"name":"startPrice","type":"uint256","internalType":"uint256"},{"name":"highestBid","type":"uint256","internalType":"uint256"},{"name":"highestBidder","type":"address","internalType":"address"},{"name":"endTime","type":"uint256","internalType":"uint256"},{"name":"ended","type":"bool","internalType":"bool"}]}],"stateMutability":"view"},{"type":"function","name":"getAllTokens","inputs":[],"outputs":[{"name":"","type":"tuple[]","internalType":"struct AuctionCrypto.Token[]","components":[{"name":"tokenId","type":"uint256","internalType":"uint256"},{"name":"name","type":"string","internalType":"string"},{"name":"initValue","type":"uint256","internalType":"uint256"},{"name":"metadata","type":"string","internalType":"string"},{"name":"available","type":"bool","internalType":"bool"},{"name":"dateCheckIn","type":"uint256","internalType":"uint256"}]}],"stateMutability":"view"},{"type":"function","name":"getApproved","inputs":[{"name":"tokenId","type":"uint256","internalType":"uint256"}],"outputs":[{"name":"","type":"address","internalType":"address"}],"stateMutability":"view"},{"type":"function","name":"getOwnerAuction","inputs":[{"name":"_walletAddress","type":"address","internalType":"address"}],"outputs":[{"name":"","type":"tuple[]","internalType":"struct AuctionCrypto.AuctionItem[]","components":[{"name":"itemId","type":"uint256","internalType":"uint256"},{"name":"name","type":"string","internalType":"string"},{"name":"metadata","type":"string","internalType":"string"},{"name":"owner","type":"address","internalType":"address"},{"name":"startPrice","type":"uint256","internalType":"uint256"},{"name":"highestBid","type":"uint256","internalType":"uint256"},{"name":"highestBidder","type":"address","internalType":"address"},{"name":"endTime","type":"uint256","internalType":"uint256"},{"name":"ended","type":"bool","internalType":"bool"}]}],"stateMutability":"view"},{"type":"function","name":"getOwnerTokens","inputs":[{"name":"_walletAddress","type":"address","internalType":"address"}],"outputs":[{"name":"","type":"tuple[]","internalType":"struct AuctionCrypto.Token[]","components":[{"name":"tokenId","type":"uint256","internalType":"uint256"},{"name":"name","type":"string","internalType":"string"},{"name":"initValue","type":"uint256","internalType":"uint256"},{"name":"metadata","type":"string","internalType":"string"},{"name":"available","type":"bool","internalType":"bool"},{"name":"dateCheckIn","type":"uint256","internalType":"uint256"}]}],"stateMutability":"view"},{"type":"function","name":"isApprovedForAll","inputs":[{"name":"owner","type":"address","internalType":"address"},{"name":"operator","type":"address","internalType":"address"}],"outputs":[{"name":"","type":"bool","internalType":"bool"}],"stateMutability":"view"},{"type":"function","name":"name","inputs":[],"outputs":[{"name":"","type":"string","internalType":"string"}],"stateMutability":"view"},{"type":"function","name":"owner","inputs":[],"outputs":[{"name":"","type":"address","internalType":"address"}],"stateMutability":"view"},{"type":"function","name":"ownerOf","inputs":[{"name":"tokenId","type":"uint256","internalType":"uint256"}],"outputs":[{"name":"","type":"address","internalType":"address"}],"stateMutability":"view"},{"type":"function","name":"purchaseToken","inputs":[{"name":"tokenId","type":"uint256","internalType":"uint256"}],"outputs":[],"stateMutability":"payable"},{"type":"function","name":"safeTransferFrom","inputs":[{"name":"from","type":"address","internalType":"address"},{"name":"to","type":"address","internalType":"address"},{"name":"tokenId","type":"uint256","internalType":"uint256"}],"outputs":[],"stateMutability":"nonpayable"},{"type":"function","name":"safeTransferFrom","inputs":[{"name":"from","type":"address","internalType":"address"},{"name":"to","type":"address","internalType":"address"},{"name":"tokenId","type":"uint256","internalType":"uint256"},{"name":"data","type":"bytes","internalType":"bytes"}],"outputs":[],"stateMutability":"nonpayable"},{"type":"function","name":"setApprovalForAll","inputs":[{"name":"operator","type":"address","internalType":"address"},{"name":"approved","type":"bool","internalType":"bool"}],"outputs":[],"stateMutability":"nonpayable"},{"type":"function","name":"supportsInterface","inputs":[{"name":"interfaceId","type":"bytes4","internalType":"bytes4"}],"outputs":[{"name":"","type":"bool","internalType":"bool"}],"stateMutability":"view"},{"type":"function","name":"symbol","inputs":[],"outputs":[{"name":"","type":"string","internalType":"string"}],"stateMutability":"view"},{"type":"function","name":"tokenURI","inputs":[{"name":"tokenId","type":"uint256","internalType":"uint256"}],"outputs":[{"name":"","type":"string","internalType":"string"}],"stateMutability":"view"},{"type":"function","name":"tokensCreated","inputs":[{"name":"","type":"uint256","internalType":"uint256"}],"outputs":[{"name":"tokenId","type":"uint256","internalType":"uint256"},{"name":"name","type":"string","internalType":"string"},{"name":"initValue","type":"uint256","internalType":"uint256"},{"name":"metadata","type":"string","internalType":"string"},{"name":"available","type":"bool","internalType":"bool"},{"name":"dateCheckIn","type":"uint256","internalType":"uint256"}],"stateMutability":"view"},{"type":"function","name":"totalSupply","inputs":[],"outputs":[{"name":"","type":"uint256","internalType":"uint256"}],"stateMutability":"view"},{"type":"function","name":"totalSupplyToken","inputs":[],"outputs":[{"name":"","type":"uint256","internalType":"uint256"}],"stateMutability":"view"},{"type":"function","name":"transferFrom","inputs":[{"name":"from","type":"address","internalType":"address"},{"name":"to","type":"address","internalType":"address"},{"name":"tokenId","type":"uint256","internalType":"uint256"}],"outputs":[],"stateMutability":"nonpayable"},{"type":"function","name":"withdraw","inputs":[],"outputs":[],"stateMutability":"nonpayable"},{"type":"event","name":"Approval","inputs":[{"name":"owner","type":"address","indexed":true,"internalType":"address"},{"name":"approved","type":"address","indexed":true,"internalType":"address"},{"name":"tokenId","type":"uint256","indexed":true,"internalType":"uint256"}],"anonymous":false},{"type":"event","name":"ApprovalForAll","inputs":[{"name":"owner","type":"address","indexed":true,"internalType":"address"},{"name":"operator","type":"address","indexed":true,"internalType":"address"},{"name":"approved","type":"bool","indexed":false,"internalType":"bool"}],"anonymous":false},{"type":"event","name":"AuctionEnded","inputs":[{"name":"itemId","type":"uint256","indexed":true,"internalType":"uint256"},{"name":"winner","type":"address","indexed":true,"internalType":"address"},{"name":"amount","type":"uint256","indexed":false,"internalType":"uint256"}],"anonymous":false},{"type":"event","name":"BatchMetadataUpdate","inputs":[{"name":"_fromTokenId","type":"uint256","indexed":false,"internalType":"uint256"},{"name":"_toTokenId","type":"uint256","indexed":false,"internalType":"uint256"}],"anonymous":false},{"type":"event","name":"MetadataUpdate","inputs":[{"name":"_tokenId","type":"uint256","indexed":false,"internalType":"uint256"}],"anonymous":false},{"type":"event","name":"NewAuction","inputs":[{"name":"itemId","type":"uint256","indexed":true,"internalType":"uint256"},{"name":"owner","type":"address","indexed":true,"internalType":"address"},{"name":"name","type":"string","indexed":false,"internalType":"string"},{"name":"startPrice","type":"uint256","indexed":false,"internalType":"uint256"},{"name":"endTime","type":"uint256","indexed":false,"internalType":"uint256"}],"anonymous":false},{"type":"event","name":"NewBid","inputs":[{"name":"itemId","type":"uint256","indexed":true,"internalType":"uint256"},{"name":"bidder","type":"address","indexed":true,"internalType":"address"},{"name":"amount","type":"uint256","indexed":false,"internalType":"uint256"}],"anonymous":false},{"type":"event","name":"NewToken","inputs":[{"name":"tokenId","type":"uint256","indexed":true,"internalType":"uint256"}],"anonymous":false},{"type":"event","name":"TokenPurchased","inputs":[{"name":"buyer","type":"address","indexed":true,"internalType":"address"},{"name":"tokenId","type":"uint256","indexed":true,"internalType":"uint256"},{"name":"amount","type":"uint256","indexed":false,"internalType":"uint256"}],"anonymous":false},{"type":"event","name":"Transfer","inputs":[{"name":"from","type":"address","indexed":true,"internalType":"address"},{"name":"to","type":"address","indexed":true,"internalType":"address"},{"name":"tokenId","type":"uint256","indexed":true,"internalType":"uint256"}],"anonymous":false},{"type":"event","name":"Withdraw","inputs":[{"name":"to","type":"address","indexed":false,"internalType":"address"},{"name":"amount","type":"uint256","indexed":false,"internalType":"uint256"}],"anonymous":false},{"type":"error","name":"ERC721IncorrectOwner","inputs":[{"name":"sender","type":"address","internalType":"address"},{"name":"tokenId","type":"uint256","internalType":"uint256"},{"name":"owner","type":"address","internalType":"address"}]},{"type":"error","name":"ERC721InsufficientApproval","inputs":[{"name":"operator","type":"address","internalType":"address"},{"name":"tokenId","type":"uint256","internalType":"uint256"}]},{"type":"error","name":"ERC721InvalidApprover","inputs":[{"name":"approver","type":"address","internalType":"address"}]},{"type":"error","name":"ERC721InvalidOperator","inputs":[{"name":"operator","type":"address","internalType":"address"}]},{"type":"error","name":"ERC721InvalidOwner","inputs":[{"name":"owner","type":"address","internalType":"address"}]},{"type":"error","name":"ERC721InvalidReceiver","inputs":[{"name":"receiver","type":"address","internalType":"address"}]},{"type":"error","name":"ERC721InvalidSender","inputs":[{"name":"sender","type":"address","internalType":"address"}]},{"type":"error","name":"ERC721NonexistentToken","inputs":[{"name":"tokenId","type":"uint256","internalType":"uint256"}]}],"bytecode":{"object":"0x60806040523480156200001157600080fd5b506040518060400160405280601481526020017f41756374696f6e2043727970746f47656e6975730000000000000000000000008152506040518060400160405280600381526020016241554360e81b815250816000908162000075919062000144565b50600162000084828262000144565b5050600780546001600160a01b031916331790555062000210565b634e487b7160e01b600052604160045260246000fd5b600181811c90821680620000ca57607f821691505b602082108103620000eb57634e487b7160e01b600052602260045260246000fd5b50919050565b601f8211156200013f57600081815260208120601f850160051c810160208610156200011a5750805b601f850160051c820191505b818110156200013b5782815560010162000126565b5050505b505050565b81516001600160401b038111156200016057620001606200009f565b6200017881620001718454620000b5565b84620000f1565b602080601f831160018114620001b05760008415620001975750858301515b600019600386901b1c1916600185901b1785556200013b565b600085815260208120601f198616915b82811015620001e157888601518255948401946001909101908401620001c0565b5085821015620002005787850151600019600388901b60f8161c191681555b5050505050600190811b01905550565b612e5a80620002206000396000f3fe60806040526004361061016d5760003560e01c806361e2db55116100c757806361e2db55146103905780636352211e146103b057806370a08231146103d05780638da5cb5b146103f057806395d89b4114610410578063a22cb46514610425578063ae1911fc14610445578063b88d4fde1461045a578063b9a2de3a1461047a578063c2db2c421461049a578063c87b56dd146104ad578063caf29765146104cd578063cbd2bdfd146104e2578063d63d4af0146104f7578063e985e9c51461051757600080fd5b806301ffc9a71461017257806306fdde03146101a7578063081812fc146101c9578063095ea7b3146101f657806318160ddd1461021857806323b872dd1461023c578063272133451461025c5780632a5c792a146102725780633ccfd60b146102945780633f899439146102a957806341abf571146102d657806342842e0e14610308578063454a2ab314610328578063571a26a01461033b5780635b06053014610370575b600080fd5b34801561017e57600080fd5b5061019261018d36600461255a565b610537565b60405190151581526020015b60405180910390f35b3480156101b357600080fd5b506101bc610562565b60405161019e91906125c7565b3480156101d557600080fd5b506101e96101e43660046125da565b6105f4565b60405161019e91906125f3565b34801561020257600080fd5b5061021661021136600461261e565b610609565b005b34801561022457600080fd5b5061022e60085481565b60405190815260200161019e565b34801561024857600080fd5b50610216610257366004612648565b610618565b34801561026857600080fd5b5061022e60095481565b34801561027e57600080fd5b50610287610698565b60405161019e9190612684565b3480156102a057600080fd5b506102166108c8565b3480156102b557600080fd5b506102c96102c4366004612736565b61094b565b60405161019e9190612751565b3480156102e257600080fd5b506102f66102f13660046125da565b610bf9565b60405161019e9695949392919061282d565b34801561031457600080fd5b50610216610323366004612648565b610d42565b6102166103363660046125da565b610d62565b34801561034757600080fd5b5061035b6103563660046125da565b610eb3565b60405161019e99989796959493929190612874565b34801561037c57600080fd5b5061021661038b366004612994565b61101a565b34801561039c57600080fd5b506102166103ab366004612a00565b611111565b3480156103bc57600080fd5b506101e96103cb3660046125da565b611295565b3480156103dc57600080fd5b5061022e6103eb366004612736565b6112a0565b3480156103fc57600080fd5b506007546101e9906001600160a01b031681565b34801561041c57600080fd5b506101bc6112e8565b34801561043157600080fd5b50610216610440366004612a73565b6112f7565b34801561045157600080fd5b5061022e600581565b34801561046657600080fd5b50610216610475366004612aaf565b611302565b34801561048657600080fd5b506102166104953660046125da565b611319565b6102166104a83660046125da565b6114d0565b3480156104b957600080fd5b506101bc6104c83660046125da565b6115f7565b3480156104d957600080fd5b5061022e606481565b3480156104ee57600080fd5b506102c9611708565b34801561050357600080fd5b50610287610512366004612736565b61195c565b34801561052357600080fd5b50610192610532366004612b2a565b611bd5565b60006001600160e01b03198216632483248360e11b148061055c575061055c82611c03565b92915050565b60606000805461057190612b5d565b80601f016020809104026020016040519081016040528092919081815260200182805461059d90612b5d565b80156105ea5780601f106105bf576101008083540402835291602001916105ea565b820191906000526020600020905b8154815290600101906020018083116105cd57829003601f168201915b5050505050905090565b60006105ff82611c53565b5061055c82611c8b565b610614828233611ca6565b5050565b6001600160a01b03821661064b576000604051633250574960e11b815260040161064291906125f3565b60405180910390fd5b6000610658838333611cb3565b9050836001600160a01b0316816001600160a01b031614610692578382826040516364283d7b60e01b815260040161064293929190612b91565b50505050565b606060006009546001600160401b038111156106b6576106b66128e9565b6040519080825280602002602001820160405280156106ef57816020015b6106dc6124a9565b8152602001906001900390816106d45790505b50600954909150156108c35760005b600160095461070d9190612bca565b8161ffff16116108c157600b60008261ffff1681526020019081526020016000206040518060c00160405290816000820154815260200160018201805461075390612b5d565b80601f016020809104026020016040519081016040528092919081815260200182805461077f90612b5d565b80156107cc5780601f106107a1576101008083540402835291602001916107cc565b820191906000526020600020905b8154815290600101906020018083116107af57829003601f168201915b50505050508152602001600282015481526020016003820180546107ef90612b5d565b80601f016020809104026020016040519081016040528092919081815260200182805461081b90612b5d565b80156108685780601f1061083d57610100808354040283529160200191610868565b820191906000526020600020905b81548152906001019060200180831161084b57829003601f168201915b5050509183525050600482015460ff16151560208201526005909101546040909101528251839061ffff84169081106108a3576108a3612bdd565b602002602001018190525080806108b990612bf3565b9150506106fe565b505b919050565b6007546040516001600160a01b03909116904780156108fc02916000818181858888f19350505050158015610901573d6000803e3d6000fd5b506007546040517f884edad9ce6fa2440d8a54cc123490eb96d2768479d49ff9c7366125a942436491610941916001600160a01b03909116904790612c14565b60405180910390a1565b60606000610958836112a0565b90506000816001600160401b03811115610974576109746128e9565b6040519080825280602002602001820160405280156109ad57816020015b61099a6124e1565b8152602001906001900390816109925790505b5090508115610bf2576000805b60016008546109c99190612bca565b8161ffff1611610bef5761ffff81166000908152600a60205260408120546109f090611295565b9050866001600160a01b0316816001600160a01b031603610bdc57600a60008361ffff1681526020019081526020016000206040518061012001604052908160008201548152602001600182018054610a4890612b5d565b80601f0160208091040260200160405190810160405280929190818152602001828054610a7490612b5d565b8015610ac15780601f10610a9657610100808354040283529160200191610ac1565b820191906000526020600020905b815481529060010190602001808311610aa457829003601f168201915b50505050508152602001600282018054610ada90612b5d565b80601f0160208091040260200160405190810160405280929190818152602001828054610b0690612b5d565b8015610b535780601f10610b2857610100808354040283529160200191610b53565b820191906000526020600020905b815481529060010190602001808311610b3657829003601f168201915b505050918352505060038201546001600160a01b03908116602083015260048301546040830152600583015460608301526006830154166080820152600782015460a082015260089091015460ff16151560c0909101528451859061ffff8616908110610bc257610bc2612bdd565b60200260200101819052508280610bd890612bf3565b9350505b5080610be781612bf3565b9150506109ba565b50505b9392505050565b600b6020526000908152604090208054600182018054919291610c1b90612b5d565b80601f0160208091040260200160405190810160405280929190818152602001828054610c4790612b5d565b8015610c945780601f10610c6957610100808354040283529160200191610c94565b820191906000526020600020905b815481529060010190602001808311610c7757829003601f168201915b505050505090806002015490806003018054610caf90612b5d565b80601f0160208091040260200160405190810160405280929190818152602001828054610cdb90612b5d565b8015610d285780601f10610cfd57610100808354040283529160200191610d28565b820191906000526020600020905b815481529060010190602001808311610d0b57829003601f168201915b505050506004830154600590930154919260ff1691905086565b610d5d83838360405180602001604052806000815250611302565b505050565b6000818152600a60205260409020600501543411610dd65760405162461bcd60e51b815260206004820152602b60248201527f426964206d75737420626520686967686572207468616e2063757272656e742060448201526a1a1a59da195cdd08189a5960aa1b6064820152608401610642565b6000818152600a60205260409020600601546001600160a01b031615610e46576000818152600a6020526040808220600681015460059091015491516001600160a01b039091169282156108fc02929190818181858888f19350505050158015610e44573d6000803e3d6000fd5b505b6000818152600a6020526040908190203460058201819055600690910180546001600160a01b03191633908117909155915183917f558a0d5d5468d74b0db24c74eb348b42271c2ebb4c9e953ced38aaed95fa436191610ea891815260200190565b60405180910390a350565b600a6020526000908152604090208054600182018054919291610ed590612b5d565b80601f0160208091040260200160405190810160405280929190818152602001828054610f0190612b5d565b8015610f4e5780601f10610f2357610100808354040283529160200191610f4e565b820191906000526020600020905b815481529060010190602001808311610f3157829003601f168201915b505050505090806002018054610f6390612b5d565b80601f0160208091040260200160405190810160405280929190818152602001828054610f8f90612b5d565b8015610fdc5780601f10610fb157610100808354040283529160200191610fdc565b820191906000526020600020905b815481529060010190602001808311610fbf57829003601f168201915b505050506003830154600484015460058501546006860154600787015460089097015495966001600160a01b03948516969395509193169160ff1689565b6009546040805160c081018252828152602080820186815282840186905260608301889052600160808401819052600060a08501819052868152600b9093529390912082518155905187938201906110729082612c7b565b5060408201516002820155606082015160038201906110919082612c7b565b50608082015160048201805460ff191691151591909117905560a0909101516005909101556110c03383611da7565b6110ca8282611e0c565b600980549060006110da83612d3a565b909155505060405182907f0b0e1efe43e1d56f854d6465fc899ed56ba06463eebf7e2ba402df15e6ee7e7e90600090a25050505050565b6008546040805161012081018252828152602081018690529081018690523360608201526080810184905260a08101849052600060c0820152859060e0810161115a4286611e5c565b815260006020918201819052848152600a825260409020825181559082015160018201906111889082612c7b565b506040820151600282019061119d9082612c7b565b5060608201516003820180546001600160a01b039283166001600160a01b0319918216179091556080840151600484015560a0840151600584015560c084015160068401805491909316911617905560e08201516007820155610100909101516008909101805491151560ff1990921691909117905561121d3383611da7565b6112278282611e0c565b6008805490600061123783612d3a565b90915550506000828152600a602052604090819020600701549051339184917f180b43a9f50a1f2dc5fa0d10afda303d033bc082b2dabad3465ad821abf5fab491611285918a918a91612d53565b60405180910390a3505050505050565b600061055c82611c53565b60006001600160a01b0382166112cc5760006040516322718ad960e21b815260040161064291906125f3565b506001600160a01b031660009081526003602052604090205490565b60606001805461057190612b5d565b610614338383611eb9565b61130d848484610618565b61069284848484611f47565b6000818152600a602052604090206008015460ff16156113775760405162461bcd60e51b8152602060048201526019602482015278105d58dd1a5bdb881a185cc8185b1c9958591e48195b991959603a1b6044820152606401610642565b6000818152600a6020526040812060088101805460ff191660011790556005908101546064916113a691612d78565b6113b09190612d8f565b6000838152600a6020526040812060050154919250906113d1908390612bca565b6000848152600a60205260409020600601549091506001600160a01b03161561149b576000838152600a60205260408082206003015490516001600160a01b039091169183156108fc02918491818181858888f1935050505015801561143b573d6000803e3d6000fd5b506000838152600a6020908152604091829020600681015460059091015492519283526001600160a01b03169185917fd2aa34a4fdbbc6dff6a3e56f46e0f3ae2a31d7785ff3487aa5c95c642acea50191015b60405180910390a3505050565b60405160008082529084907fd2aa34a4fdbbc6dff6a3e56f46e0f3ae2a31d7785ff3487aa5c95c642acea5019060200161148e565b6000818152600b602052604090206004015460ff166115275760405162461bcd60e51b8152602060048201526013602482015272546f6b656e206e6f7420617661696c61626c6560681b6044820152606401610642565b60006064611536600534612d78565b6115409190612d8f565b9050600061154e8234612bca565b905061155983611295565b6001600160a01b03166108fc829081150290604051600060405180830381858888f19350505050158015611591573d6000803e3d6000fd5b506115a561159e84611295565b338561205e565b6000838152600b60209081526040918290204260058201553460029091018190559151918252849133917f3ceffd410054fdaed44f598ff5c1fb450658778e2241892da4aa646979dee617910161148e565b606061160282611c53565b506000828152600660205260408120805461161c90612b5d565b80601f016020809104026020016040519081016040528092919081815260200182805461164890612b5d565b80156116955780601f1061166a57610100808354040283529160200191611695565b820191906000526020600020905b81548152906001019060200180831161167857829003601f168201915b5050505050905060006116b360408051602081019091526000815290565b905080516000036116c5575092915050565b8151156116f75780826040516020016116df929190612db1565b60405160208183030381529060405292505050919050565b611700846120fa565b949350505050565b606060006008546001600160401b03811115611726576117266128e9565b60405190808252806020026020018201604052801561175f57816020015b61174c6124e1565b8152602001906001900390816117445790505b50600854909150156108c35760005b600160085461177d9190612bca565b8161ffff16116108c157600a60008261ffff16815260200190815260200160002060405180610120016040529081600082015481526020016001820180546117c490612b5d565b80601f01602080910402602001604051908101604052809291908181526020018280546117f090612b5d565b801561183d5780601f106118125761010080835404028352916020019161183d565b820191906000526020600020905b81548152906001019060200180831161182057829003601f168201915b5050505050815260200160028201805461185690612b5d565b80601f016020809104026020016040519081016040528092919081815260200182805461188290612b5d565b80156118cf5780601f106118a4576101008083540402835291602001916118cf565b820191906000526020600020905b8154815290600101906020018083116118b257829003601f168201915b505050918352505060038201546001600160a01b03908116602083015260048301546040830152600583015460608301526006830154166080820152600782015460a082015260089091015460ff16151560c0909101528251839061ffff841690811061193e5761193e612bdd565b6020026020010181905250808061195490612bf3565b91505061176e565b60606000611969836112a0565b90506000816001600160401b03811115611985576119856128e9565b6040519080825280602002602001820160405280156119be57816020015b6119ab6124a9565b8152602001906001900390816119a35790505b5090508115610bf2576000805b60016008546119da9190612bca565b8161ffff1611610bef5761ffff81166000908152600b6020526040812054611a0190611295565b9050866001600160a01b0316816001600160a01b031603611bc257600b60008361ffff1681526020019081526020016000206040518060c001604052908160008201548152602001600182018054611a5890612b5d565b80601f0160208091040260200160405190810160405280929190818152602001828054611a8490612b5d565b8015611ad15780601f10611aa657610100808354040283529160200191611ad1565b820191906000526020600020905b815481529060010190602001808311611ab457829003601f168201915b5050505050815260200160028201548152602001600382018054611af490612b5d565b80601f0160208091040260200160405190810160405280929190818152602001828054611b2090612b5d565b8015611b6d5780601f10611b4257610100808354040283529160200191611b6d565b820191906000526020600020905b815481529060010190602001808311611b5057829003601f168201915b5050509183525050600482015460ff16151560208201526005909101546040909101528451859061ffff8616908110611ba857611ba8612bdd565b60200260200101819052508280611bbe90612bf3565b9350505b5080611bcd81612bf3565b9150506119cb565b6001600160a01b03918216600090815260056020908152604080832093909416825291909152205460ff1690565b60006001600160e01b031982166380ac58cd60e01b1480611c3457506001600160e01b03198216635b5e139f60e01b145b8061055c57506301ffc9a760e01b6001600160e01b031983161461055c565b600080611c5f8361216e565b90506001600160a01b03811661055c57604051637e27328960e01b815260048101849052602401610642565b6000908152600460205260409020546001600160a01b031690565b610d5d8383836001612189565b600080611cbf8461216e565b90506001600160a01b03831615611cdb57611cdb818486612286565b6001600160a01b03811615611d1957611cf8600085600080612189565b6001600160a01b038116600090815260036020526040902080546000190190555b6001600160a01b03851615611d48576001600160a01b0385166000908152600360205260409020805460010190555b60008481526002602052604080822080546001600160a01b0319166001600160a01b0389811691821790925591518793918516917fddf252ad1be2c89b69c2b068fc378daa952ba7f163c4a11628f55a4df523b3ef91a4949350505050565b6001600160a01b038216611dd1576000604051633250574960e11b815260040161064291906125f3565b6000611ddf83836000611cb3565b90506001600160a01b03811615610d5d5760006040516339e3563760e11b815260040161064291906125f3565b6000828152600660205260409020611e248282612c7b565b506040518281527ff8e1a15aba9398e019f0b49df1a4fde98ee17ae345cb5f6b5e2c27f5033e8ce79060200160405180910390a15050565b600080611e698385612de0565b905083811015610bf25760405162461bcd60e51b815260206004820152601b60248201527a536166654d6174683a206164646974696f6e206f766572666c6f7760281b6044820152606401610642565b6001600160a01b038216611ee25781604051630b61174360e31b815260040161064291906125f3565b6001600160a01b03838116600081815260056020908152604080832094871680845294825291829020805460ff191686151590811790915591519182527f17307eab39ab6107e8899845ad3d59bd9653f200f220920489ca2b5937696c31910161148e565b6001600160a01b0383163b1561069257604051630a85bd0160e11b81526001600160a01b0384169063150b7a0290611f89903390889087908790600401612df3565b6020604051808303816000875af1925050508015611fc4575060408051601f3d908101601f19168201909252611fc191810190612e30565b60015b612024573d808015611ff2576040519150601f19603f3d011682016040523d82523d6000602084013e611ff7565b606091505b50805160000361201c5783604051633250574960e11b815260040161064291906125f3565b805181602001fd5b6001600160e01b03198116630a85bd0160e11b146120575783604051633250574960e11b815260040161064291906125f3565b5050505050565b6001600160a01b038216612088576000604051633250574960e11b815260040161064291906125f3565b600061209683836000611cb3565b90506001600160a01b0381166120c257604051637e27328960e01b815260048101839052602401610642565b836001600160a01b0316816001600160a01b031614610692578382826040516364283d7b60e01b815260040161064293929190612b91565b606061210582611c53565b50600061211d60408051602081019091526000815290565b9050600081511161213d5760405180602001604052806000815250610bf2565b80612147846122dc565b604051602001612158929190612db1565b6040516020818303038152906040529392505050565b6000908152600260205260409020546001600160a01b031690565b808061219d57506001600160a01b03821615155b156122565760006121ad84611c53565b90506001600160a01b038316158015906121d95750826001600160a01b0316816001600160a01b031614155b80156121ec57506121ea8184611bd5565b155b1561220c578260405163a9fbf51f60e01b815260040161064291906125f3565b81156122545783856001600160a01b0316826001600160a01b03167f8c5be1e5ebec7d5bd14f71427d1e84f3dd0314c0f7b2291e5b200ac8c7c3b92560405160405180910390a45b505b5050600090815260046020526040902080546001600160a01b0319166001600160a01b0392909216919091179055565b61229183838361236e565b610d5d576001600160a01b0383166122bf57604051637e27328960e01b815260048101829052602401610642565b818160405163177e802f60e01b8152600401610642929190612c14565b606060006122e9836123d3565b60010190506000816001600160401b03811115612308576123086128e9565b6040519080825280601f01601f191660200182016040528015612332576020820181803683370190505b5090508181016020015b600019016f181899199a1a9b1b9c1cb0b131b232b360811b600a86061a8153600a850494508461233c57509392505050565b60006001600160a01b038316158015906117005750826001600160a01b0316846001600160a01b031614806123a857506123a88484611bd5565b806117005750826001600160a01b03166123c183611c8b565b6001600160a01b031614949350505050565b60008072184f03e93ff9f4daa797ed6e38ed64bf6a1f0160401b83106124125772184f03e93ff9f4daa797ed6e38ed64bf6a1f0160401b830492506040015b6904ee2d6d415b85acef8160201b831061243c576904ee2d6d415b85acef8160201b830492506020015b662386f26fc10000831061245a57662386f26fc10000830492506010015b6305f5e1008310612472576305f5e100830492506008015b612710831061248657612710830492506004015b60648310612498576064830492506002015b600a831061055c5760010192915050565b6040518060c0016040528060008152602001606081526020016000815260200160608152602001600015158152602001600081525090565b60405180610120016040528060008152602001606081526020016060815260200160006001600160a01b03168152602001600081526020016000815260200160006001600160a01b03168152602001600081526020016000151581525090565b6001600160e01b03198116811461255757600080fd5b50565b60006020828403121561256c57600080fd5b8135610bf281612541565b60005b8381101561259257818101518382015260200161257a565b50506000910152565b600081518084526125b3816020860160208601612577565b601f01601f19169290920160200192915050565b602081526000610bf2602083018461259b565b6000602082840312156125ec57600080fd5b5035919050565b6001600160a01b0391909116815260200190565b80356001600160a01b03811681146108c357600080fd5b6000806040838503121561263157600080fd5b61263a83612607565b946020939093013593505050565b60008060006060848603121561265d57600080fd5b61266684612607565b925061267460208501612607565b9150604084013590509250925092565b60006020808301818452808551808352604092508286019150828160051b87010184880160005b8381101561272857603f19898403018552815160c08151855288820151818a8701526126d98287018261259b565b9150508782015188860152606080830151868303828801526126fb838261259b565b60808581015115159089015260a094850151949097019390935250505093860193908601906001016126ab565b509098975050505050505050565b60006020828403121561274857600080fd5b610bf282612607565b60006020808301818452808551808352604092508286019150828160051b87010184880160005b8381101561272857603f1989840301855281516101208151855288820151818a8701526127a78287018261259b565b91505087820151858203898701526127bf828261259b565b9150506060808301516127dc828801826001600160a01b03169052565b50506080828101519086015260a0808301519086015260c0808301516001600160a01b03169086015260e0808301519086015261010091820151151591909401529386019390860190600101612778565b86815260c06020820152600061284660c083018861259b565b866040840152828103606084015261285e818761259b565b9415156080840152505060a00152949350505050565b60006101208b835280602084015261288e8184018c61259b565b905082810360408401526128a2818b61259b565b6001600160a01b03998a1660608501526080840198909852505060a08101949094529190941660c083015260e0820193909352911515610100909201919091529392505050565b634e487b7160e01b600052604160045260246000fd5b60006001600160401b0380841115612919576129196128e9565b604051601f8501601f19908116603f01168101908282118183101715612941576129416128e9565b8160405280935085815286868601111561295a57600080fd5b858560208301376000602087830101525050509392505050565b600082601f83011261298557600080fd5b610bf2838335602085016128ff565b6000806000606084860312156129a957600080fd5b83356001600160401b03808211156129c057600080fd5b6129cc87838801612974565b945060208601359150808211156129e257600080fd5b506129ef86828701612974565b925050604084013590509250925092565b60008060008060808587031215612a1657600080fd5b84356001600160401b0380821115612a2d57600080fd5b612a3988838901612974565b95506020870135915080821115612a4f57600080fd5b50612a5c87828801612974565b949794965050505060408301359260600135919050565b60008060408385031215612a8657600080fd5b612a8f83612607565b915060208301358015158114612aa457600080fd5b809150509250929050565b60008060008060808587031215612ac557600080fd5b612ace85612607565b9350612adc60208601612607565b92506040850135915060608501356001600160401b03811115612afe57600080fd5b8501601f81018713612b0f57600080fd5b612b1e878235602084016128ff565b91505092959194509250565b60008060408385031215612b3d57600080fd5b612b4683612607565b9150612b5460208401612607565b90509250929050565b600181811c90821680612b7157607f821691505b6020821081036108c157634e487b7160e01b600052602260045260246000fd5b6001600160a01b0393841681526020810192909252909116604082015260600190565b634e487b7160e01b600052601160045260246000fd5b8181038181111561055c5761055c612bb4565b634e487b7160e01b600052603260045260246000fd5b600061ffff808316818103612c0a57612c0a612bb4565b6001019392505050565b6001600160a01b03929092168252602082015260400190565b601f821115610d5d57600081815260208120601f850160051c81016020861015612c545750805b601f850160051c820191505b81811015612c7357828155600101612c60565b505050505050565b81516001600160401b03811115612c9457612c946128e9565b612ca881612ca28454612b5d565b84612c2d565b602080601f831160018114612cdd5760008415612cc55750858301515b600019600386901b1c1916600185901b178555612c73565b600085815260208120601f198616915b82811015612d0c57888601518255948401946001909101908401612ced565b5085821015612d2a5787850151600019600388901b60f8161c191681555b5050505050600190811b01905550565b600060018201612d4c57612d4c612bb4565b5060010190565b606081526000612d66606083018661259b565b60208301949094525060400152919050565b808202811582820484141761055c5761055c612bb4565b600082612dac57634e487b7160e01b600052601260045260246000fd5b500490565b60008351612dc3818460208801612577565b835190830190612dd7818360208801612577565b01949350505050565b8082018082111561055c5761055c612bb4565b6001600160a01b0385811682528416602082015260408101839052608060608201819052600090612e269083018461259b565b9695505050505050565b600060208284031215612e4257600080fd5b8151610bf28161254156fea164736f6c6343000814000a","linkReferences":{}},"methodIdentifiers":{"OWNER_FEE_PERCENTAGE()":"ae1911fc","PERCENTAGE_DIVISOR()":"caf29765","approve(address,uint256)":"095ea7b3","auctions(uint256)":"571a26a0","balanceOf(address)":"70a08231","bid(uint256)":"454a2ab3","createAuction(string,string,uint256,uint256)":"61e2db55","createToken(string,string,uint256)":"5b060530","endAuction(uint256)":"b9a2de3a","getAllAuctions()":"cbd2bdfd","getAllTokens()":"2a5c792a","getApproved(uint256)":"081812fc","getOwnerAuction(address)":"3f899439","getOwnerTokens(address)":"d63d4af0","isApprovedForAll(address,address)":"e985e9c5","name()":"06fdde03","owner()":"8da5cb5b","ownerOf(uint256)":"6352211e","purchaseToken(uint256)":"c2db2c42","safeTransferFrom(address,address,uint256)":"42842e0e","safeTransferFrom(address,address,uint256,bytes)":"b88d4fde","setApprovalForAll(address,bool)":"a22cb465","supportsInterface(bytes4)":"01ffc9a7","symbol()":"95d89b41","tokenURI(uint256)":"c87b56dd","tokensCreated(uint256)":"41abf571","totalSupply()":"18160ddd","totalSupplyToken()":"27213345","transferFrom(address,address,uint256)":"23b872dd","withdraw()":"3ccfd60b"},"id":42}