{"abi":[{"type":"constructor","inputs":[],"stateMutability":"nonpayable"},{"type":"function","name":"approve","inputs":[{"name":"to","type":"address","internalType":"address"},{"name":"tokenId","type":"uint256","internalType":"uint256"}],"outputs":[],"stateMutability":"nonpayable"},{"type":"function","name":"auctions","inputs":[{"name":"","type":"uint256","internalType":"uint256"}],"outputs":[{"name":"itemId","type":"uint256","internalType":"uint256"},{"name":"name","type":"string","internalType":"string"},{"name":"metadata","type":"string","internalType":"string"},{"name":"owner","type":"address","internalType":"address"},{"name":"startPrice","type":"uint256","internalType":"uint256"},{"name":"highestBid","type":"uint256","internalType":"uint256"},{"name":"highestBidder","type":"address","internalType":"address"},{"name":"endTime","type":"uint256","internalType":"uint256"},{"name":"ended","type":"bool","internalType":"bool"}],"stateMutability":"view"},{"type":"function","name":"balanceOf","inputs":[{"name":"owner","type":"address","internalType":"address"}],"outputs":[{"name":"","type":"uint256","internalType":"uint256"}],"stateMutability":"view"},{"type":"function","name":"bid","inputs":[{"name":"itemId","type":"uint256","internalType":"uint256"}],"outputs":[],"stateMutability":"payable"},{"type":"function","name":"createAuction","inputs":[{"name":"metadata","type":"string","internalType":"string"},{"name":"name","type":"string","internalType":"string"},{"name":"startPrice","type":"uint256","internalType":"uint256"},{"name":"duration","type":"uint256","internalType":"uint256"}],"outputs":[],"stateMutability":"nonpayable"},{"type":"function","name":"endAuction","inputs":[{"name":"itemId","type":"uint256","internalType":"uint256"}],"outputs":[],"stateMutability":"nonpayable"},{"type":"function","name":"getApproved","inputs":[{"name":"tokenId","type":"uint256","internalType":"uint256"}],"outputs":[{"name":"","type":"address","internalType":"address"}],"stateMutability":"view"},{"type":"function","name":"isApprovedForAll","inputs":[{"name":"owner","type":"address","internalType":"address"},{"name":"operator","type":"address","internalType":"address"}],"outputs":[{"name":"","type":"bool","internalType":"bool"}],"stateMutability":"view"},{"type":"function","name":"name","inputs":[],"outputs":[{"name":"","type":"string","internalType":"string"}],"stateMutability":"view"},{"type":"function","name":"owner","inputs":[],"outputs":[{"name":"","type":"address","internalType":"address"}],"stateMutability":"view"},{"type":"function","name":"ownerOf","inputs":[{"name":"tokenId","type":"uint256","internalType":"uint256"}],"outputs":[{"name":"","type":"address","internalType":"address"}],"stateMutability":"view"},{"type":"function","name":"safeTransferFrom","inputs":[{"name":"from","type":"address","internalType":"address"},{"name":"to","type":"address","internalType":"address"},{"name":"tokenId","type":"uint256","internalType":"uint256"}],"outputs":[],"stateMutability":"nonpayable"},{"type":"function","name":"safeTransferFrom","inputs":[{"name":"from","type":"address","internalType":"address"},{"name":"to","type":"address","internalType":"address"},{"name":"tokenId","type":"uint256","internalType":"uint256"},{"name":"data","type":"bytes","internalType":"bytes"}],"outputs":[],"stateMutability":"nonpayable"},{"type":"function","name":"setApprovalForAll","inputs":[{"name":"operator","type":"address","internalType":"address"},{"name":"approved","type":"bool","internalType":"bool"}],"outputs":[],"stateMutability":"nonpayable"},{"type":"function","name":"supportsInterface","inputs":[{"name":"interfaceId","type":"bytes4","internalType":"bytes4"}],"outputs":[{"name":"","type":"bool","internalType":"bool"}],"stateMutability":"view"},{"type":"function","name":"symbol","inputs":[],"outputs":[{"name":"","type":"string","internalType":"string"}],"stateMutability":"view"},{"type":"function","name":"tokenURI","inputs":[{"name":"tokenId","type":"uint256","internalType":"uint256"}],"outputs":[{"name":"","type":"string","internalType":"string"}],"stateMutability":"view"},{"type":"function","name":"totalSupply","inputs":[],"outputs":[{"name":"","type":"uint256","internalType":"uint256"}],"stateMutability":"view"},{"type":"function","name":"transferFrom","inputs":[{"name":"from","type":"address","internalType":"address"},{"name":"to","type":"address","internalType":"address"},{"name":"tokenId","type":"uint256","internalType":"uint256"}],"outputs":[],"stateMutability":"nonpayable"},{"type":"function","name":"withdraw","inputs":[],"outputs":[],"stateMutability":"nonpayable"},{"type":"event","name":"Approval","inputs":[{"name":"owner","type":"address","indexed":true,"internalType":"address"},{"name":"approved","type":"address","indexed":true,"internalType":"address"},{"name":"tokenId","type":"uint256","indexed":true,"internalType":"uint256"}],"anonymous":false},{"type":"event","name":"ApprovalForAll","inputs":[{"name":"owner","type":"address","indexed":true,"internalType":"address"},{"name":"operator","type":"address","indexed":true,"internalType":"address"},{"name":"approved","type":"bool","indexed":false,"internalType":"bool"}],"anonymous":false},{"type":"event","name":"AuctionEnded","inputs":[{"name":"itemId","type":"uint256","indexed":true,"internalType":"uint256"},{"name":"winner","type":"address","indexed":true,"internalType":"address"},{"name":"amount","type":"uint256","indexed":false,"internalType":"uint256"}],"anonymous":false},{"type":"event","name":"BatchMetadataUpdate","inputs":[{"name":"_fromTokenId","type":"uint256","indexed":false,"internalType":"uint256"},{"name":"_toTokenId","type":"uint256","indexed":false,"internalType":"uint256"}],"anonymous":false},{"type":"event","name":"MetadataUpdate","inputs":[{"name":"_tokenId","type":"uint256","indexed":false,"internalType":"uint256"}],"anonymous":false},{"type":"event","name":"NewAuction","inputs":[{"name":"itemId","type":"uint256","indexed":true,"internalType":"uint256"},{"name":"owner","type":"address","indexed":true,"internalType":"address"},{"name":"name","type":"string","indexed":false,"internalType":"string"},{"name":"startPrice","type":"uint256","indexed":false,"internalType":"uint256"},{"name":"endTime","type":"uint256","indexed":false,"internalType":"uint256"}],"anonymous":false},{"type":"event","name":"NewBid","inputs":[{"name":"itemId","type":"uint256","indexed":true,"internalType":"uint256"},{"name":"bidder","type":"address","indexed":true,"internalType":"address"},{"name":"amount","type":"uint256","indexed":false,"internalType":"uint256"}],"anonymous":false},{"type":"event","name":"Transfer","inputs":[{"name":"from","type":"address","indexed":true,"internalType":"address"},{"name":"to","type":"address","indexed":true,"internalType":"address"},{"name":"tokenId","type":"uint256","indexed":true,"internalType":"uint256"}],"anonymous":false},{"type":"error","name":"ERC721IncorrectOwner","inputs":[{"name":"sender","type":"address","internalType":"address"},{"name":"tokenId","type":"uint256","internalType":"uint256"},{"name":"owner","type":"address","internalType":"address"}]},{"type":"error","name":"ERC721InsufficientApproval","inputs":[{"name":"operator","type":"address","internalType":"address"},{"name":"tokenId","type":"uint256","internalType":"uint256"}]},{"type":"error","name":"ERC721InvalidApprover","inputs":[{"name":"approver","type":"address","internalType":"address"}]},{"type":"error","name":"ERC721InvalidOperator","inputs":[{"name":"operator","type":"address","internalType":"address"}]},{"type":"error","name":"ERC721InvalidOwner","inputs":[{"name":"owner","type":"address","internalType":"address"}]},{"type":"error","name":"ERC721InvalidReceiver","inputs":[{"name":"receiver","type":"address","internalType":"address"}]},{"type":"error","name":"ERC721InvalidSender","inputs":[{"name":"sender","type":"address","internalType":"address"}]},{"type":"error","name":"ERC721NonexistentToken","inputs":[{"name":"tokenId","type":"uint256","internalType":"uint256"}]}],"bytecode":{"object":"0x60806040523480156200001157600080fd5b506040518060400160405280600981526020016811985b991bdb53919560ba1b815250604051806040016040528060038152602001622320a760e91b815250816000908162000061919062000130565b50600162000070828262000130565b5050600780546001600160a01b0319163317905550620001fc565b634e487b7160e01b600052604160045260246000fd5b600181811c90821680620000b657607f821691505b602082108103620000d757634e487b7160e01b600052602260045260246000fd5b50919050565b601f8211156200012b57600081815260208120601f850160051c81016020861015620001065750805b601f850160051c820191505b81811015620001275782815560010162000112565b5050505b505050565b81516001600160401b038111156200014c576200014c6200008b565b62000164816200015d8454620000a1565b84620000dd565b602080601f8311600181146200019c5760008415620001835750858301515b600019600386901b1c1916600185901b17855562000127565b600085815260208120601f198616915b82811015620001cd57888601518255948401946001909101908401620001ac565b5085821015620001ec5787850151600019600388901b60f8161c191681555b5050505050600190811b01905550565b611cd0806200020c6000396000f3fe6080604052600436106100ff5760003560e01c806361e2db551161009057806361e2db551461026b5780636352211e1461028b57806370a08231146102ab5780638da5cb5b146102cb57806395d89b41146102eb578063a22cb46514610300578063b88d4fde14610320578063b9a2de3a14610340578063c87b56dd14610360578063e985e9c51461038057600080fd5b806301ffc9a71461010457806306fdde0314610139578063081812fc1461015b578063095ea7b31461018857806318160ddd146101aa57806323b872dd146101ce5780633ccfd60b146101ee57806342842e0e14610203578063454a2ab314610223578063571a26a014610236575b600080fd5b34801561011057600080fd5b5061012461011f366004611662565b6103a0565b60405190151581526020015b60405180910390f35b34801561014557600080fd5b5061014e6103cb565b60405161013091906116cf565b34801561016757600080fd5b5061017b6101763660046116e2565b61045d565b60405161013091906116fb565b34801561019457600080fd5b506101a86101a336600461172b565b610472565b005b3480156101b657600080fd5b506101c060085481565b604051908152602001610130565b3480156101da57600080fd5b506101a86101e9366004611755565b610481565b3480156101fa57600080fd5b506101a8610515565b34801561020f57600080fd5b506101a861021e366004611755565b610551565b6101a86102313660046116e2565b610571565b34801561024257600080fd5b506102566102513660046116e2565b61079f565b60405161013099989796959493929190611791565b34801561027757600080fd5b506101a86102863660046118b1565b610906565b34801561029757600080fd5b5061017b6102a63660046116e2565b610a89565b3480156102b757600080fd5b506101c06102c6366004611924565b610a94565b3480156102d757600080fd5b5060075461017b906001600160a01b031681565b3480156102f757600080fd5b5061014e610adc565b34801561030c57600080fd5b506101a861031b36600461193f565b610aeb565b34801561032c57600080fd5b506101a861033b36600461197b565b610af6565b34801561034c57600080fd5b506101a861035b3660046116e2565b610b0d565b34801561036c57600080fd5b5061014e61037b3660046116e2565b610ce6565b34801561038c57600080fd5b5061012461039b3660046119f6565b610df7565b60006001600160e01b03198216632483248360e11b14806103c557506103c582610e25565b92915050565b6060600080546103da90611a29565b80601f016020809104026020016040519081016040528092919081815260200182805461040690611a29565b80156104535780601f1061042857610100808354040283529160200191610453565b820191906000526020600020905b81548152906001019060200180831161043657829003601f168201915b5050505050905090565b600061046882610e75565b506103c582610ead565b61047d828233610ec8565b5050565b6001600160a01b0382166104b4576000604051633250574960e11b81526004016104ab91906116fb565b60405180910390fd5b60006104c1838333610ed5565b9050836001600160a01b0316816001600160a01b03161461050f576040516364283d7b60e01b81526001600160a01b03808616600483015260248201849052821660448201526064016104ab565b50505050565b6007546040516001600160a01b03909116904780156108fc02916000818181858888f1935050505015801561054e573d6000803e3d6000fd5b50565b61056c83838360405180602001604052806000815250610af6565b505050565b60008181526009602052604090206003015481906001600160a01b03166105aa5760405162461bcd60e51b81526004016104ab90611a63565b6000828152600960205260409020600301548290336001600160a01b03909116036106175760405162461bcd60e51b815260206004820152601f60248201527f596f752063616e6e6f7420626964206f6e20796f7572206f776e206974656d0060448201526064016104ab565b600083815260096020526040902060080154839060ff161561064b5760405162461bcd60e51b81526004016104ab90611a93565b60008481526009602052604090206005015434116106bf5760405162461bcd60e51b815260206004820152602b60248201527f426964206d75737420626520686967686572207468616e2063757272656e742060448201526a1a1a59da195cdd08189a5960aa1b60648201526084016104ab565b6000848152600960205260409020600601546001600160a01b03161561072f57600084815260096020526040808220600681015460059091015491516001600160a01b039091169282156108fc02929190818181858888f1935050505015801561072d573d6000803e3d6000fd5b505b600084815260096020526040908190203460058201819055600690910180546001600160a01b03191633908117909155915186917f558a0d5d5468d74b0db24c74eb348b42271c2ebb4c9e953ced38aaed95fa43619161079191815260200190565b60405180910390a350505050565b600960205260009081526040902080546001820180549192916107c190611a29565b80601f01602080910402602001604051908101604052809291908181526020018280546107ed90611a29565b801561083a5780601f1061080f5761010080835404028352916020019161083a565b820191906000526020600020905b81548152906001019060200180831161081d57829003601f168201915b50505050509080600201805461084f90611a29565b80601f016020809104026020016040519081016040528092919081815260200182805461087b90611a29565b80156108c85780601f1061089d576101008083540402835291602001916108c8565b820191906000526020600020905b8154815290600101906020018083116108ab57829003601f168201915b505050506003830154600484015460058501546006860154600787015460089097015495966001600160a01b03948516969395509193169160ff1689565b6008546040805161012081018252828152602081018690529081018690523360608201526080810184905260a08101849052600060c082015260e0810161094d4285610fc9565b81526000602091820181905283815260098252604090208251815590820151600182019061097b9082611b14565b50604082015160028201906109909082611b14565b5060608201516003820180546001600160a01b039283166001600160a01b0319918216179091556080840151600484015560a0840151600584015560c084015160068401805491909316911617905560e08201516007820155610100909101516008909101805491151560ff1990921691909117905584610a11338361102d565b610a1b8282611092565b60088054906000610a2b83611be9565b909155505060008281526009602052604090819020600701549051339184917f180b43a9f50a1f2dc5fa0d10afda303d033bc082b2dabad3465ad821abf5fab491610a79918a918a91611c02565b60405180910390a3505050505050565b60006103c582610e75565b60006001600160a01b038216610ac05760006040516322718ad960e21b81526004016104ab91906116fb565b506001600160a01b031660009081526003602052604090205490565b6060600180546103da90611a29565b61047d3383836110e2565b610b01848484610481565b61050f84848484611178565b60008181526009602052604090206003015481906001600160a01b0316610b465760405162461bcd60e51b81526004016104ab90611a63565b600082815260096020526040902060070154421015610ba35760405162461bcd60e51b8152602060048201526019602482015278105d58dd1a5bdb881a185cc81b9bdd08195b991959081e595d603a1b60448201526064016104ab565b60008281526009602052604090206008015460ff1615610bd55760405162461bcd60e51b81526004016104ab90611a93565b600082815260096020526040902060088101805460ff19166001179055600601546001600160a01b031615610cb157600082815260096020526040808220600381015460059091015491516001600160a01b039091169282156108fc02929190818181858888f19350505050158015610c52573d6000803e3d6000fd5b50600082815260096020908152604091829020600681015460059091015492519283526001600160a01b03169184917fd2aa34a4fdbbc6dff6a3e56f46e0f3ae2a31d7785ff3487aa5c95c642acea50191015b60405180910390a35050565b60405160008082529083907fd2aa34a4fdbbc6dff6a3e56f46e0f3ae2a31d7785ff3487aa5c95c642acea50190602001610ca5565b6060610cf182610e75565b5060008281526006602052604081208054610d0b90611a29565b80601f0160208091040260200160405190810160405280929190818152602001828054610d3790611a29565b8015610d845780601f10610d5957610100808354040283529160200191610d84565b820191906000526020600020905b815481529060010190602001808311610d6757829003601f168201915b505050505090506000610da260408051602081019091526000815290565b90508051600003610db4575092915050565b815115610de6578082604051602001610dce929190611c27565b60405160208183030381529060405292505050919050565b610def8461128f565b949350505050565b6001600160a01b03918216600090815260056020908152604080832093909416825291909152205460ff1690565b60006001600160e01b031982166380ac58cd60e01b1480610e5657506001600160e01b03198216635b5e139f60e01b145b806103c557506301ffc9a760e01b6001600160e01b03198316146103c5565b600080610e8183611303565b90506001600160a01b0381166103c557604051637e27328960e01b8152600481018490526024016104ab565b6000908152600460205260409020546001600160a01b031690565b61056c838383600161131e565b600080610ee184611303565b90506001600160a01b03831615610efd57610efd81848661141b565b6001600160a01b03811615610f3b57610f1a60008560008061131e565b6001600160a01b038116600090815260036020526040902080546000190190555b6001600160a01b03851615610f6a576001600160a01b0385166000908152600360205260409020805460010190555b60008481526002602052604080822080546001600160a01b0319166001600160a01b0389811691821790925591518793918516917fddf252ad1be2c89b69c2b068fc378daa952ba7f163c4a11628f55a4df523b3ef91a4949350505050565b600080610fd68385611c56565b9050838110156110265760405162461bcd60e51b815260206004820152601b60248201527a536166654d6174683a206164646974696f6e206f766572666c6f7760281b60448201526064016104ab565b9392505050565b6001600160a01b038216611057576000604051633250574960e11b81526004016104ab91906116fb565b600061106583836000610ed5565b90506001600160a01b0381161561056c5760006040516339e3563760e11b81526004016104ab91906116fb565b60008281526006602052604090206110aa8282611b14565b506040518281527ff8e1a15aba9398e019f0b49df1a4fde98ee17ae345cb5f6b5e2c27f5033e8ce79060200160405180910390a15050565b6001600160a01b03821661110b5781604051630b61174360e31b81526004016104ab91906116fb565b6001600160a01b03838116600081815260056020908152604080832094871680845294825291829020805460ff191686151590811790915591519182527f17307eab39ab6107e8899845ad3d59bd9653f200f220920489ca2b5937696c31910160405180910390a3505050565b6001600160a01b0383163b1561050f57604051630a85bd0160e11b81526001600160a01b0384169063150b7a02906111ba903390889087908790600401611c69565b6020604051808303816000875af19250505080156111f5575060408051601f3d908101601f191682019092526111f291810190611ca6565b60015b611255573d808015611223576040519150601f19603f3d011682016040523d82523d6000602084013e611228565b606091505b50805160000361124d5783604051633250574960e11b81526004016104ab91906116fb565b805181602001fd5b6001600160e01b03198116630a85bd0160e11b146112885783604051633250574960e11b81526004016104ab91906116fb565b5050505050565b606061129a82610e75565b5060006112b260408051602081019091526000815290565b905060008151116112d25760405180602001604052806000815250611026565b806112dc8461147f565b6040516020016112ed929190611c27565b6040516020818303038152906040529392505050565b6000908152600260205260409020546001600160a01b031690565b808061133257506001600160a01b03821615155b156113eb57600061134284610e75565b90506001600160a01b0383161580159061136e5750826001600160a01b0316816001600160a01b031614155b8015611381575061137f8184610df7565b155b156113a1578260405163a9fbf51f60e01b81526004016104ab91906116fb565b81156113e95783856001600160a01b0316826001600160a01b03167f8c5be1e5ebec7d5bd14f71427d1e84f3dd0314c0f7b2291e5b200ac8c7c3b92560405160405180910390a45b505b5050600090815260046020526040902080546001600160a01b0319166001600160a01b0392909216919091179055565b611426838383611511565b61056c576001600160a01b03831661145457604051637e27328960e01b8152600481018290526024016104ab565b60405163177e802f60e01b81526001600160a01b0383166004820152602481018290526044016104ab565b6060600061148c83611576565b60010190506000816001600160401b038111156114ab576114ab611806565b6040519080825280601f01601f1916602001820160405280156114d5576020820181803683370190505b5090508181016020015b600019016f181899199a1a9b1b9c1cb0b131b232b360811b600a86061a8153600a85049450846114df57509392505050565b60006001600160a01b03831615801590610def5750826001600160a01b0316846001600160a01b0316148061154b575061154b8484610df7565b80610def5750826001600160a01b031661156483610ead565b6001600160a01b031614949350505050565b60008072184f03e93ff9f4daa797ed6e38ed64bf6a1f0160401b83106115b55772184f03e93ff9f4daa797ed6e38ed64bf6a1f0160401b830492506040015b6904ee2d6d415b85acef8160201b83106115df576904ee2d6d415b85acef8160201b830492506020015b662386f26fc1000083106115fd57662386f26fc10000830492506010015b6305f5e1008310611615576305f5e100830492506008015b612710831061162957612710830492506004015b6064831061163b576064830492506002015b600a83106103c55760010192915050565b6001600160e01b03198116811461054e57600080fd5b60006020828403121561167457600080fd5b81356110268161164c565b60005b8381101561169a578181015183820152602001611682565b50506000910152565b600081518084526116bb81602086016020860161167f565b601f01601f19169290920160200192915050565b60208152600061102660208301846116a3565b6000602082840312156116f457600080fd5b5035919050565b6001600160a01b0391909116815260200190565b80356001600160a01b038116811461172657600080fd5b919050565b6000806040838503121561173e57600080fd5b6117478361170f565b946020939093013593505050565b60008060006060848603121561176a57600080fd5b6117738461170f565b92506117816020850161170f565b9150604084013590509250925092565b60006101208b83528060208401526117ab8184018c6116a3565b905082810360408401526117bf818b6116a3565b6001600160a01b03998a1660608501526080840198909852505060a08101949094529190941660c083015260e0820193909352911515610100909201919091529392505050565b634e487b7160e01b600052604160045260246000fd5b60006001600160401b038084111561183657611836611806565b604051601f8501601f19908116603f0116810190828211818310171561185e5761185e611806565b8160405280935085815286868601111561187757600080fd5b858560208301376000602087830101525050509392505050565b600082601f8301126118a257600080fd5b6110268383356020850161181c565b600080600080608085870312156118c757600080fd5b84356001600160401b03808211156118de57600080fd5b6118ea88838901611891565b9550602087013591508082111561190057600080fd5b5061190d87828801611891565b949794965050505060408301359260600135919050565b60006020828403121561193657600080fd5b6110268261170f565b6000806040838503121561195257600080fd5b61195b8361170f565b91506020830135801515811461197057600080fd5b809150509250929050565b6000806000806080858703121561199157600080fd5b61199a8561170f565b93506119a86020860161170f565b92506040850135915060608501356001600160401b038111156119ca57600080fd5b8501601f810187136119db57600080fd5b6119ea8782356020840161181c565b91505092959194509250565b60008060408385031215611a0957600080fd5b611a128361170f565b9150611a206020840161170f565b90509250929050565b600181811c90821680611a3d57607f821691505b602082108103611a5d57634e487b7160e01b600052602260045260246000fd5b50919050565b602080825260169082015275105d58dd1a5bdb88191bd95cc81b9bdd08195e1a5cdd60521b604082015260600190565b602080825260199082015278105d58dd1a5bdb881a185cc8185b1c9958591e48195b991959603a1b604082015260600190565b601f82111561056c57600081815260208120601f850160051c81016020861015611aed5750805b601f850160051c820191505b81811015611b0c57828155600101611af9565b505050505050565b81516001600160401b03811115611b2d57611b2d611806565b611b4181611b3b8454611a29565b84611ac6565b602080601f831160018114611b765760008415611b5e5750858301515b600019600386901b1c1916600185901b178555611b0c565b600085815260208120601f198616915b82811015611ba557888601518255948401946001909101908401611b86565b5085821015611bc35787850151600019600388901b60f8161c191681555b5050505050600190811b01905550565b634e487b7160e01b600052601160045260246000fd5b600060018201611bfb57611bfb611bd3565b5060010190565b606081526000611c1560608301866116a3565b60208301949094525060400152919050565b60008351611c3981846020880161167f565b835190830190611c4d81836020880161167f565b01949350505050565b808201808211156103c5576103c5611bd3565b6001600160a01b0385811682528416602082015260408101839052608060608201819052600090611c9c908301846116a3565b9695505050505050565b600060208284031215611cb857600080fd5b81516110268161164c56fea164736f6c6343000814000a","linkReferences":{}},"methodIdentifiers":{"approve(address,uint256)":"095ea7b3","auctions(uint256)":"571a26a0","balanceOf(address)":"70a08231","bid(uint256)":"454a2ab3","createAuction(string,string,uint256,uint256)":"61e2db55","endAuction(uint256)":"b9a2de3a","getApproved(uint256)":"081812fc","isApprovedForAll(address,address)":"e985e9c5","name()":"06fdde03","owner()":"8da5cb5b","ownerOf(uint256)":"6352211e","safeTransferFrom(address,address,uint256)":"42842e0e","safeTransferFrom(address,address,uint256,bytes)":"b88d4fde","setApprovalForAll(address,bool)":"a22cb465","supportsInterface(bytes4)":"01ffc9a7","symbol()":"95d89b41","tokenURI(uint256)":"c87b56dd","totalSupply()":"18160ddd","transferFrom(address,address,uint256)":"23b872dd","withdraw()":"3ccfd60b"},"id":36}