{"abi":[{"type":"function","name":"arithmeticError","inputs":[],"outputs":[{"name":"","type":"bytes","internalType":"bytes"}],"stateMutability":"view"},{"type":"function","name":"assertionError","inputs":[],"outputs":[{"name":"","type":"bytes","internalType":"bytes"}],"stateMutability":"view"},{"type":"function","name":"divisionError","inputs":[],"outputs":[{"name":"","type":"bytes","internalType":"bytes"}],"stateMutability":"view"},{"type":"function","name":"encodeStorageError","inputs":[],"outputs":[{"name":"","type":"bytes","internalType":"bytes"}],"stateMutability":"view"},{"type":"function","name":"enumConversionError","inputs":[],"outputs":[{"name":"","type":"bytes","internalType":"bytes"}],"stateMutability":"view"},{"type":"function","name":"indexOOBError","inputs":[],"outputs":[{"name":"","type":"bytes","internalType":"bytes"}],"stateMutability":"view"},{"type":"function","name":"memOverflowError","inputs":[],"outputs":[{"name":"","type":"bytes","internalType":"bytes"}],"stateMutability":"view"},{"type":"function","name":"popError","inputs":[],"outputs":[{"name":"","type":"bytes","internalType":"bytes"}],"stateMutability":"view"},{"type":"function","name":"zeroVarError","inputs":[],"outputs":[{"name":"","type":"bytes","internalType":"bytes"}],"stateMutability":"view"}],"bytecode":{"object":"0x61021661003a600b82828239805160001a60731461002d57634e487b7160e01b600052600060045260246000fd5b30600052607381538281f3fe730000000000000000000000000000000000000000301460806040526004361061008d5760003560e01c806305ee86121461009257806310332977146100b05780631de45560146100b85780638995290f146100c0578063986c5f68146100c8578063b22dc54d146100d0578063b67689da146100d8578063d160e4de146100e0578063fa784a44146100e8575b600080fd5b61009a6100f0565b6040516100a791906101bb565b60405180910390f35b61009a61012b565b61009a61013d565b61009a61014f565b61009a610161565b61009a610173565b61009a610185565b61009a610197565b61009a6101a9565b604051603260248201526044015b60408051601f198184030181529190526020810180516001600160e01b0316634e487b7160e01b17905281565b604051600160248201526044016100fe565b604051602160248201526044016100fe565b604051601160248201526044016100fe565b604051604160248201526044016100fe565b604051603160248201526044016100fe565b604051605160248201526044016100fe565b604051602260248201526044016100fe565b604051601260248201526044016100fe565b600060208083528351808285015260005b818110156101e8578581018301518582016040015282016101cc565b506000604082860101526040601f19601f830116850101925050509291505056fea164736f6c6343000814000a","linkReferences":{}},"methodIdentifiers":{"arithmeticError()":"8995290f","assertionError()":"10332977","divisionError()":"fa784a44","encodeStorageError()":"d160e4de","enumConversionError()":"1de45560","indexOOBError()":"05ee8612","memOverflowError()":"986c5f68","popError()":"b22dc54d","zeroVarError()":"b67689da"},"id":5}