{"abi":[{"type":"constructor","inputs":[],"stateMutability":"nonpayable"},{"type":"function","name":"OWNER_FEE_PERCENTAGE","inputs":[],"outputs":[{"name":"","type":"uint256","internalType":"uint256"}],"stateMutability":"view"},{"type":"function","name":"PERCENTAGE_DIVISOR","inputs":[],"outputs":[{"name":"","type":"uint256","internalType":"uint256"}],"stateMutability":"view"},{"type":"function","name":"approve","inputs":[{"name":"to","type":"address","internalType":"address"},{"name":"tokenId","type":"uint256","internalType":"uint256"}],"outputs":[],"stateMutability":"nonpayable"},{"type":"function","name":"balanceOf","inputs":[{"name":"owner","type":"address","internalType":"address"}],"outputs":[{"name":"","type":"uint256","internalType":"uint256"}],"stateMutability":"view"},{"type":"function","name":"createToken","inputs":[{"name":"metadata","type":"string","internalType":"string"},{"name":"name","type":"string","internalType":"string"},{"name":"initValue","type":"uint256","internalType":"uint256"}],"outputs":[],"stateMutability":"nonpayable"},{"type":"function","name":"getAllTokens","inputs":[],"outputs":[{"name":"","type":"tuple[]","internalType":"struct FandomNFT.Token[]","components":[{"name":"tokenId","type":"uint256","internalType":"uint256"},{"name":"name","type":"string","internalType":"string"},{"name":"initValue","type":"uint256","internalType":"uint256"},{"name":"metadata","type":"string","internalType":"string"},{"name":"available","type":"bool","internalType":"bool"},{"name":"dateCheckIn","type":"uint256","internalType":"uint256"}]}],"stateMutability":"view"},{"type":"function","name":"getApproved","inputs":[{"name":"tokenId","type":"uint256","internalType":"uint256"}],"outputs":[{"name":"","type":"address","internalType":"address"}],"stateMutability":"view"},{"type":"function","name":"getOwner","inputs":[],"outputs":[{"name":"","type":"address","internalType":"address"}],"stateMutability":"view"},{"type":"function","name":"getOwnerTokens","inputs":[{"name":"_walletAddress","type":"address","internalType":"address"}],"outputs":[{"name":"","type":"tuple[]","internalType":"struct FandomNFT.Token[]","components":[{"name":"tokenId","type":"uint256","internalType":"uint256"},{"name":"name","type":"string","internalType":"string"},{"name":"initValue","type":"uint256","internalType":"uint256"},{"name":"metadata","type":"string","internalType":"string"},{"name":"available","type":"bool","internalType":"bool"},{"name":"dateCheckIn","type":"uint256","internalType":"uint256"}]}],"stateMutability":"view"},{"type":"function","name":"isApprovedForAll","inputs":[{"name":"owner","type":"address","internalType":"address"},{"name":"operator","type":"address","internalType":"address"}],"outputs":[{"name":"","type":"bool","internalType":"bool"}],"stateMutability":"view"},{"type":"function","name":"name","inputs":[],"outputs":[{"name":"","type":"string","internalType":"string"}],"stateMutability":"view"},{"type":"function","name":"owner","inputs":[],"outputs":[{"name":"","type":"address","internalType":"address"}],"stateMutability":"view"},{"type":"function","name":"ownerOf","inputs":[{"name":"tokenId","type":"uint256","internalType":"uint256"}],"outputs":[{"name":"","type":"address","internalType":"address"}],"stateMutability":"view"},{"type":"function","name":"purchaseToken","inputs":[{"name":"tokenId","type":"uint256","internalType":"uint256"}],"outputs":[],"stateMutability":"payable"},{"type":"function","name":"safeTransferFrom","inputs":[{"name":"from","type":"address","internalType":"address"},{"name":"to","type":"address","internalType":"address"},{"name":"tokenId","type":"uint256","internalType":"uint256"}],"outputs":[],"stateMutability":"nonpayable"},{"type":"function","name":"safeTransferFrom","inputs":[{"name":"from","type":"address","internalType":"address"},{"name":"to","type":"address","internalType":"address"},{"name":"tokenId","type":"uint256","internalType":"uint256"},{"name":"data","type":"bytes","internalType":"bytes"}],"outputs":[],"stateMutability":"nonpayable"},{"type":"function","name":"setApprovalForAll","inputs":[{"name":"operator","type":"address","internalType":"address"},{"name":"approved","type":"bool","internalType":"bool"}],"outputs":[],"stateMutability":"nonpayable"},{"type":"function","name":"supportsInterface","inputs":[{"name":"interfaceId","type":"bytes4","internalType":"bytes4"}],"outputs":[{"name":"","type":"bool","internalType":"bool"}],"stateMutability":"view"},{"type":"function","name":"symbol","inputs":[],"outputs":[{"name":"","type":"string","internalType":"string"}],"stateMutability":"view"},{"type":"function","name":"tokenURI","inputs":[{"name":"tokenId","type":"uint256","internalType":"uint256"}],"outputs":[{"name":"","type":"string","internalType":"string"}],"stateMutability":"view"},{"type":"function","name":"tokensCreated","inputs":[{"name":"","type":"uint256","internalType":"uint256"}],"outputs":[{"name":"tokenId","type":"uint256","internalType":"uint256"},{"name":"name","type":"string","internalType":"string"},{"name":"initValue","type":"uint256","internalType":"uint256"},{"name":"metadata","type":"string","internalType":"string"},{"name":"available","type":"bool","internalType":"bool"},{"name":"dateCheckIn","type":"uint256","internalType":"uint256"}],"stateMutability":"view"},{"type":"function","name":"totalSupply","inputs":[],"outputs":[{"name":"","type":"uint256","internalType":"uint256"}],"stateMutability":"view"},{"type":"function","name":"transferFrom","inputs":[{"name":"from","type":"address","internalType":"address"},{"name":"to","type":"address","internalType":"address"},{"name":"tokenId","type":"uint256","internalType":"uint256"}],"outputs":[],"stateMutability":"nonpayable"},{"type":"event","name":"Approval","inputs":[{"name":"owner","type":"address","indexed":true,"internalType":"address"},{"name":"approved","type":"address","indexed":true,"internalType":"address"},{"name":"tokenId","type":"uint256","indexed":true,"internalType":"uint256"}],"anonymous":false},{"type":"event","name":"ApprovalForAll","inputs":[{"name":"owner","type":"address","indexed":true,"internalType":"address"},{"name":"operator","type":"address","indexed":true,"internalType":"address"},{"name":"approved","type":"bool","indexed":false,"internalType":"bool"}],"anonymous":false},{"type":"event","name":"BatchMetadataUpdate","inputs":[{"name":"_fromTokenId","type":"uint256","indexed":false,"internalType":"uint256"},{"name":"_toTokenId","type":"uint256","indexed":false,"internalType":"uint256"}],"anonymous":false},{"type":"event","name":"MetadataUpdate","inputs":[{"name":"_tokenId","type":"uint256","indexed":false,"internalType":"uint256"}],"anonymous":false},{"type":"event","name":"TokenPurchased","inputs":[{"name":"buyer","type":"address","indexed":true,"internalType":"address"},{"name":"tokenId","type":"uint256","indexed":true,"internalType":"uint256"},{"name":"amount","type":"uint256","indexed":false,"internalType":"uint256"}],"anonymous":false},{"type":"event","name":"Transfer","inputs":[{"name":"from","type":"address","indexed":true,"internalType":"address"},{"name":"to","type":"address","indexed":true,"internalType":"address"},{"name":"tokenId","type":"uint256","indexed":true,"internalType":"uint256"}],"anonymous":false},{"type":"event","name":"callCreateToken","inputs":[{"name":"tokenId","type":"uint256","indexed":true,"internalType":"uint256"}],"anonymous":false},{"type":"error","name":"ERC721IncorrectOwner","inputs":[{"name":"sender","type":"address","internalType":"address"},{"name":"tokenId","type":"uint256","internalType":"uint256"},{"name":"owner","type":"address","internalType":"address"}]},{"type":"error","name":"ERC721InsufficientApproval","inputs":[{"name":"operator","type":"address","internalType":"address"},{"name":"tokenId","type":"uint256","internalType":"uint256"}]},{"type":"error","name":"ERC721InvalidApprover","inputs":[{"name":"approver","type":"address","internalType":"address"}]},{"type":"error","name":"ERC721InvalidOperator","inputs":[{"name":"operator","type":"address","internalType":"address"}]},{"type":"error","name":"ERC721InvalidOwner","inputs":[{"name":"owner","type":"address","internalType":"address"}]},{"type":"error","name":"ERC721InvalidReceiver","inputs":[{"name":"receiver","type":"address","internalType":"address"}]},{"type":"error","name":"ERC721InvalidSender","inputs":[{"name":"sender","type":"address","internalType":"address"}]},{"type":"error","name":"ERC721NonexistentToken","inputs":[{"name":"tokenId","type":"uint256","internalType":"uint256"}]}],"bytecode":{"object":"0x60806040523480156200001157600080fd5b506040518060400160405280600981526020016811985b991bdb53919560ba1b815250604051806040016040528060038152602001622320a760e91b815250816000908162000061919062000130565b50600162000070828262000130565b5050600980546001600160a01b0319163317905550620001fc565b634e487b7160e01b600052604160045260246000fd5b600181811c90821680620000b657607f821691505b602082108103620000d757634e487b7160e01b600052602260045260246000fd5b50919050565b601f8211156200012b57600081815260208120601f850160051c81016020861015620001065750805b601f850160051c820191505b81811015620001275782815560010162000112565b5050505b505050565b81516001600160401b038111156200014c576200014c6200008b565b62000164816200015d8454620000a1565b84620000dd565b602080601f8311600181146200019c5760008415620001835750858301515b600019600386901b1c1916600185901b17855562000127565b600085815260208120601f198616915b82811015620001cd57888601518255948401946001909101908401620001ac565b5085821015620001ec5787850151600019600388901b60f8161c191681555b5050505050600190811b01905550565b611f93806200020c6000396000f3fe6080604052600436106101205760003560e01c806370a08231116100a657806370a08231146102c3578063893d20e8146102e35780638da5cb5b1461030157806395d89b4114610321578063a22cb46514610336578063ae1911fc14610356578063b88d4fde1461036b578063c2db2c421461038b578063c87b56dd1461039e578063caf29765146103be578063d63d4af0146103d3578063e985e9c5146103f357600080fd5b806301ffc9a71461012557806306fdde031461015a578063081812fc1461017c578063095ea7b3146101a957806318160ddd146101cb57806323b872dd146101ef5780632a5c792a1461020f57806341abf5711461023157806342842e0e146102635780635b060530146102835780636352211e146102a3575b600080fd5b34801561013157600080fd5b50610145610140366004611841565b610413565b60405190151581526020015b60405180910390f35b34801561016657600080fd5b5061016f61043e565b60405161015191906118ae565b34801561018857600080fd5b5061019c6101973660046118c1565b6104d0565b60405161015191906118da565b3480156101b557600080fd5b506101c96101c4366004611905565b6104e5565b005b3480156101d757600080fd5b506101e160075481565b604051908152602001610151565b3480156101fb57600080fd5b506101c961020a36600461192f565b6104f4565b34801561021b57600080fd5b50610224610574565b604051610151919061196b565b34801561023d57600080fd5b5061025161024c3660046118c1565b6107a4565b60405161015196959493929190611a1d565b34801561026f57600080fd5b506101c961027e36600461192f565b6108ed565b34801561028f57600080fd5b506101c961029e366004611b0f565b61090d565b3480156102af57600080fd5b5061019c6102be3660046118c1565b610a23565b3480156102cf57600080fd5b506101e16102de366004611b7b565b610a2e565b3480156102ef57600080fd5b506009546001600160a01b031661019c565b34801561030d57600080fd5b5060095461019c906001600160a01b031681565b34801561032d57600080fd5b5061016f610a76565b34801561034257600080fd5b506101c9610351366004611b96565b610a85565b34801561036257600080fd5b506101e1600581565b34801561037757600080fd5b506101c9610386366004611bd2565b610a90565b6101c96103993660046118c1565b610aa7565b3480156103aa57600080fd5b5061016f6103b93660046118c1565b610bd7565b3480156103ca57600080fd5b506101e1606481565b3480156103df57600080fd5b506102246103ee366004611b7b565b610ce8565b3480156103ff57600080fd5b5061014561040e366004611c4d565b610f6b565b60006001600160e01b03198216632483248360e11b1480610438575061043882610f99565b92915050565b60606000805461044d90611c80565b80601f016020809104026020016040519081016040528092919081815260200182805461047990611c80565b80156104c65780601f1061049b576101008083540402835291602001916104c6565b820191906000526020600020905b8154815290600101906020018083116104a957829003601f168201915b5050505050905090565b60006104db82610fe9565b5061043882611021565b6104f082823361103c565b5050565b6001600160a01b038216610527576000604051633250574960e11b815260040161051e91906118da565b60405180910390fd5b6000610534838333611049565b9050836001600160a01b0316816001600160a01b03161461056e578382826040516364283d7b60e01b815260040161051e93929190611cb4565b50505050565b606060006007546001600160401b0381111561059257610592611a64565b6040519080825280602002602001820160405280156105cb57816020015b6105b86117f0565b8152602001906001900390816105b05790505b506007549091501561079f5760005b60016007546105e99190611ced565b8161ffff161161079d57600860008261ffff1681526020019081526020016000206040518060c00160405290816000820154815260200160018201805461062f90611c80565b80601f016020809104026020016040519081016040528092919081815260200182805461065b90611c80565b80156106a85780601f1061067d576101008083540402835291602001916106a8565b820191906000526020600020905b81548152906001019060200180831161068b57829003601f168201915b50505050508152602001600282015481526020016003820180546106cb90611c80565b80601f01602080910402602001604051908101604052809291908181526020018280546106f790611c80565b80156107445780601f1061071957610100808354040283529160200191610744565b820191906000526020600020905b81548152906001019060200180831161072757829003601f168201915b5050509183525050600482015460ff16151560208201526005909101546040909101528251839061ffff841690811061077f5761077f611d00565b6020026020010181905250808061079590611d16565b9150506105da565b505b919050565b600860205260009081526040902080546001820180549192916107c690611c80565b80601f01602080910402602001604051908101604052809291908181526020018280546107f290611c80565b801561083f5780601f106108145761010080835404028352916020019161083f565b820191906000526020600020905b81548152906001019060200180831161082257829003601f168201915b50505050509080600201549080600301805461085a90611c80565b80601f016020809104026020016040519081016040528092919081815260200182805461088690611c80565b80156108d35780601f106108a8576101008083540402835291602001916108d3565b820191906000526020600020905b8154815290600101906020018083116108b657829003601f168201915b505050506004830154600590930154919260ff1691905086565b61090883838360405180602001604052806000815250610a90565b505050565b600754604051600090610924908690602001611d37565b60408051601f1981840301815260c083018252848352602083810188815284840188905260608501839052600160808601819052600060a08701819052888152600890935293909120845181559051919450918201906109849082611dec565b5060408201516002820155606082015160038201906109a39082611dec565b50608082015160048201805460ff191691151591909117905560a0909101516005909101556109d2338361113d565b6109dc82826111a2565b600780549060006109ec83611eab565b909155505060405182907fc5ae46c0a99c5e8dab5e6d897bc2b469f869f2a9f9b1843c41537901f1d8a5e390600090a25050505050565b600061043882610fe9565b60006001600160a01b038216610a5a5760006040516322718ad960e21b815260040161051e91906118da565b506001600160a01b031660009081526003602052604090205490565b60606001805461044d90611c80565b6104f03383836111f2565b610a9b8484846104f4565b61056e84848484611280565b60008181526008602052604090206004015460ff16610afe5760405162461bcd60e51b8152602060048201526013602482015272546f6b656e206e6f7420617661696c61626c6560681b604482015260640161051e565b60006064610b0d600534611ec4565b610b179190611edb565b90506000610b258234611ced565b9050610b3083610a23565b6001600160a01b03166108fc829081150290604051600060405180830381858888f19350505050158015610b68573d6000803e3d6000fd5b50610b7c610b7584610a23565b3385611397565b6000838152600860209081526040918290204260058201553460029091018190559151918252849133917f3ceffd410054fdaed44f598ff5c1fb450658778e2241892da4aa646979dee61791015b60405180910390a3505050565b6060610be282610fe9565b5060008281526006602052604081208054610bfc90611c80565b80601f0160208091040260200160405190810160405280929190818152602001828054610c2890611c80565b8015610c755780601f10610c4a57610100808354040283529160200191610c75565b820191906000526020600020905b815481529060010190602001808311610c5857829003601f168201915b505050505090506000610c9360408051602081019091526000815290565b90508051600003610ca5575092915050565b815115610cd7578082604051602001610cbf929190611efd565b60405160208183030381529060405292505050919050565b610ce084611433565b949350505050565b60606000610cf583610a2e565b90506000816001600160401b03811115610d1157610d11611a64565b604051908082528060200260200182016040528015610d4a57816020015b610d376117f0565b815260200190600190039081610d2f5790505b5090508115610f64576000805b6001600754610d669190611ced565b8161ffff1611610f615761ffff8116600090815260086020526040812054610d8d90610a23565b9050866001600160a01b0316816001600160a01b031603610f4e57600860008361ffff1681526020019081526020016000206040518060c001604052908160008201548152602001600182018054610de490611c80565b80601f0160208091040260200160405190810160405280929190818152602001828054610e1090611c80565b8015610e5d5780601f10610e3257610100808354040283529160200191610e5d565b820191906000526020600020905b815481529060010190602001808311610e4057829003601f168201915b5050505050815260200160028201548152602001600382018054610e8090611c80565b80601f0160208091040260200160405190810160405280929190818152602001828054610eac90611c80565b8015610ef95780601f10610ece57610100808354040283529160200191610ef9565b820191906000526020600020905b815481529060010190602001808311610edc57829003601f168201915b5050509183525050600482015460ff16151560208201526005909101546040909101528451859061ffff8616908110610f3457610f34611d00565b60200260200101819052508280610f4a90611d16565b9350505b5080610f5981611d16565b915050610d57565b50505b9392505050565b6001600160a01b03918216600090815260056020908152604080832093909416825291909152205460ff1690565b60006001600160e01b031982166380ac58cd60e01b1480610fca57506001600160e01b03198216635b5e139f60e01b145b8061043857506301ffc9a760e01b6001600160e01b0319831614610438565b600080610ff5836114a7565b90506001600160a01b03811661043857604051637e27328960e01b81526004810184905260240161051e565b6000908152600460205260409020546001600160a01b031690565b61090883838360016114c2565b600080611055846114a7565b90506001600160a01b03831615611071576110718184866115bf565b6001600160a01b038116156110af5761108e6000856000806114c2565b6001600160a01b038116600090815260036020526040902080546000190190555b6001600160a01b038516156110de576001600160a01b0385166000908152600360205260409020805460010190555b60008481526002602052604080822080546001600160a01b0319166001600160a01b0389811691821790925591518793918516917fddf252ad1be2c89b69c2b068fc378daa952ba7f163c4a11628f55a4df523b3ef91a4949350505050565b6001600160a01b038216611167576000604051633250574960e11b815260040161051e91906118da565b600061117583836000611049565b90506001600160a01b038116156109085760006040516339e3563760e11b815260040161051e91906118da565b60008281526006602052604090206111ba8282611dec565b506040518281527ff8e1a15aba9398e019f0b49df1a4fde98ee17ae345cb5f6b5e2c27f5033e8ce79060200160405180910390a15050565b6001600160a01b03821661121b5781604051630b61174360e31b815260040161051e91906118da565b6001600160a01b03838116600081815260056020908152604080832094871680845294825291829020805460ff191686151590811790915591519182527f17307eab39ab6107e8899845ad3d59bd9653f200f220920489ca2b5937696c319101610bca565b6001600160a01b0383163b1561056e57604051630a85bd0160e11b81526001600160a01b0384169063150b7a02906112c2903390889087908790600401611f2c565b6020604051808303816000875af19250505080156112fd575060408051601f3d908101601f191682019092526112fa91810190611f69565b60015b61135d573d80801561132b576040519150601f19603f3d011682016040523d82523d6000602084013e611330565b606091505b5080516000036113555783604051633250574960e11b815260040161051e91906118da565b805181602001fd5b6001600160e01b03198116630a85bd0160e11b146113905783604051633250574960e11b815260040161051e91906118da565b5050505050565b6001600160a01b0382166113c1576000604051633250574960e11b815260040161051e91906118da565b60006113cf83836000611049565b90506001600160a01b0381166113fb57604051637e27328960e01b81526004810183905260240161051e565b836001600160a01b0316816001600160a01b03161461056e578382826040516364283d7b60e01b815260040161051e93929190611cb4565b606061143e82610fe9565b50600061145660408051602081019091526000815290565b905060008151116114765760405180602001604052806000815250610f64565b8061148084611623565b604051602001611491929190611efd565b6040516020818303038152906040529392505050565b6000908152600260205260409020546001600160a01b031690565b80806114d657506001600160a01b03821615155b1561158f5760006114e684610fe9565b90506001600160a01b038316158015906115125750826001600160a01b0316816001600160a01b031614155b801561152557506115238184610f6b565b155b15611545578260405163a9fbf51f60e01b815260040161051e91906118da565b811561158d5783856001600160a01b0316826001600160a01b03167f8c5be1e5ebec7d5bd14f71427d1e84f3dd0314c0f7b2291e5b200ac8c7c3b92560405160405180910390a45b505b5050600090815260046020526040902080546001600160a01b0319166001600160a01b0392909216919091179055565b6115ca8383836116b5565b610908576001600160a01b0383166115f857604051637e27328960e01b81526004810182905260240161051e565b60405163177e802f60e01b81526001600160a01b03831660048201526024810182905260440161051e565b606060006116308361171a565b60010190506000816001600160401b0381111561164f5761164f611a64565b6040519080825280601f01601f191660200182016040528015611679576020820181803683370190505b5090508181016020015b600019016f181899199a1a9b1b9c1cb0b131b232b360811b600a86061a8153600a850494508461168357509392505050565b60006001600160a01b03831615801590610ce05750826001600160a01b0316846001600160a01b031614806116ef57506116ef8484610f6b565b80610ce05750826001600160a01b031661170883611021565b6001600160a01b031614949350505050565b60008072184f03e93ff9f4daa797ed6e38ed64bf6a1f0160401b83106117595772184f03e93ff9f4daa797ed6e38ed64bf6a1f0160401b830492506040015b6904ee2d6d415b85acef8160201b8310611783576904ee2d6d415b85acef8160201b830492506020015b662386f26fc1000083106117a157662386f26fc10000830492506010015b6305f5e10083106117b9576305f5e100830492506008015b61271083106117cd57612710830492506004015b606483106117df576064830492506002015b600a83106104385760010192915050565b6040518060c0016040528060008152602001606081526020016000815260200160608152602001600015158152602001600081525090565b6001600160e01b03198116811461183e57600080fd5b50565b60006020828403121561185357600080fd5b8135610f6481611828565b60005b83811015611879578181015183820152602001611861565b50506000910152565b6000815180845261189a81602086016020860161185e565b601f01601f19169290920160200192915050565b602081526000610f646020830184611882565b6000602082840312156118d357600080fd5b5035919050565b6001600160a01b0391909116815260200190565b80356001600160a01b038116811461079f57600080fd5b6000806040838503121561191857600080fd5b611921836118ee565b946020939093013593505050565b60008060006060848603121561194457600080fd5b61194d846118ee565b925061195b602085016118ee565b9150604084013590509250925092565b60006020808301818452808551808352604092508286019150828160051b87010184880160005b83811015611a0f57603f19898403018552815160c08151855288820151818a8701526119c082870182611882565b9150508782015188860152606080830151868303828801526119e28382611882565b60808581015115159089015260a09485015194909701939093525050509386019390860190600101611992565b509098975050505050505050565b86815260c060208201526000611a3660c0830188611882565b8660408401528281036060840152611a4e8187611882565b9415156080840152505060a00152949350505050565b634e487b7160e01b600052604160045260246000fd5b60006001600160401b0380841115611a9457611a94611a64565b604051601f8501601f19908116603f01168101908282118183101715611abc57611abc611a64565b81604052809350858152868686011115611ad557600080fd5b858560208301376000602087830101525050509392505050565b600082601f830112611b0057600080fd5b610f6483833560208501611a7a565b600080600060608486031215611b2457600080fd5b83356001600160401b0380821115611b3b57600080fd5b611b4787838801611aef565b94506020860135915080821115611b5d57600080fd5b50611b6a86828701611aef565b925050604084013590509250925092565b600060208284031215611b8d57600080fd5b610f64826118ee565b60008060408385031215611ba957600080fd5b611bb2836118ee565b915060208301358015158114611bc757600080fd5b809150509250929050565b60008060008060808587031215611be857600080fd5b611bf1856118ee565b9350611bff602086016118ee565b92506040850135915060608501356001600160401b03811115611c2157600080fd5b8501601f81018713611c3257600080fd5b611c4187823560208401611a7a565b91505092959194509250565b60008060408385031215611c6057600080fd5b611c69836118ee565b9150611c77602084016118ee565b90509250929050565b600181811c90821680611c9457607f821691505b60208210810361079d57634e487b7160e01b600052602260045260246000fd5b6001600160a01b0393841681526020810192909252909116604082015260600190565b634e487b7160e01b600052601160045260246000fd5b8181038181111561043857610438611cd7565b634e487b7160e01b600052603260045260246000fd5b600061ffff808316818103611d2d57611d2d611cd7565b6001019392505050565b7f68747470733a2f2f617a7572652d6269747465722d6772617373686f707065728152782d3938372e6d7970696e6174612e636c6f75642f697066732f60381b602082015260008251611d9181603985016020870161185e565b9190910160390192915050565b601f82111561090857600081815260208120601f850160051c81016020861015611dc55750805b601f850160051c820191505b81811015611de457828155600101611dd1565b505050505050565b81516001600160401b03811115611e0557611e05611a64565b611e1981611e138454611c80565b84611d9e565b602080601f831160018114611e4e5760008415611e365750858301515b600019600386901b1c1916600185901b178555611de4565b600085815260208120601f198616915b82811015611e7d57888601518255948401946001909101908401611e5e565b5085821015611e9b5787850151600019600388901b60f8161c191681555b5050505050600190811b01905550565b600060018201611ebd57611ebd611cd7565b5060010190565b808202811582820484141761043857610438611cd7565b600082611ef857634e487b7160e01b600052601260045260246000fd5b500490565b60008351611f0f81846020880161185e565b835190830190611f2381836020880161185e565b01949350505050565b6001600160a01b0385811682528416602082015260408101839052608060608201819052600090611f5f90830184611882565b9695505050505050565b600060208284031215611f7b57600080fd5b8151610f648161182856fea164736f6c6343000814000a","linkReferences":{}},"methodIdentifiers":{"OWNER_FEE_PERCENTAGE()":"ae1911fc","PERCENTAGE_DIVISOR()":"caf29765","approve(address,uint256)":"095ea7b3","balanceOf(address)":"70a08231","createToken(string,string,uint256)":"5b060530","getAllTokens()":"2a5c792a","getApproved(uint256)":"081812fc","getOwner()":"893d20e8","getOwnerTokens(address)":"d63d4af0","isApprovedForAll(address,address)":"e985e9c5","name()":"06fdde03","owner()":"8da5cb5b","ownerOf(uint256)":"6352211e","purchaseToken(uint256)":"c2db2c42","safeTransferFrom(address,address,uint256)":"42842e0e","safeTransferFrom(address,address,uint256,bytes)":"b88d4fde","setApprovalForAll(address,bool)":"a22cb465","supportsInterface(bytes4)":"01ffc9a7","symbol()":"95d89b41","tokenURI(uint256)":"c87b56dd","tokensCreated(uint256)":"41abf571","totalSupply()":"18160ddd","transferFrom(address,address,uint256)":"23b872dd"},"id":38}